{
  "_format": "hh-sol-artifact-1",
  "contractName": "NFTMarketplace",
  "sourceName": "contracts/NFTMarketplace.sol",
  "abi": [
    {
      "inputs": [],
      "stateMutability": "nonpayable",
      "type": "constructor"
    },
    {
      "anonymous": false,
      "inputs": [
        {
          "indexed": true,
          "internalType": "address",
          "name": "owner",
          "type": "address"
        },
        {
          "indexed": true,
          "internalType": "address",
          "name": "approved",
          "type": "address"
        },
        {
          "indexed": true,
          "internalType": "uint256",
          "name": "tokenId",
          "type": "uint256"
        }
      ],
      "name": "Approval",
      "type": "event"
    },
    {
      "anonymous": false,
      "inputs": [
        {
          "indexed": true,
          "internalType": "address",
          "name": "owner",
          "type": "address"
        },
        {
          "indexed": true,
          "internalType": "address",
          "name": "operator",
          "type": "address"
        },
        {
          "indexed": false,
          "internalType": "bool",
          "name": "approved",
          "type": "bool"
        }
      ],
      "name": "ApprovalForAll",
      "type": "event"
    },
    {
      "anonymous": false,
      "inputs": [
        {
          "indexed": true,
          "internalType": "uint256",
          "name": "tokenId",
          "type": "uint256"
        },
        {
          "indexed": false,
          "internalType": "address",
          "name": "seller",
          "type": "address"
        },
        {
          "indexed": false,
          "internalType": "address",
          "name": "owner",
          "type": "address"
        },
        {
          "indexed": false,
          "internalType": "uint256",
          "name": "price",
          "type": "uint256"
        },
        {
          "indexed": false,
          "internalType": "bool",
          "name": "sold",
          "type": "bool"
        }
      ],
      "name": "MarketItemCreated",
      "type": "event"
    },
    {
      "anonymous": false,
      "inputs": [
        {
          "indexed": true,
          "internalType": "address",
          "name": "from",
          "type": "address"
        },
        {
          "indexed": true,
          "internalType": "address",
          "name": "to",
          "type": "address"
        },
        {
          "indexed": true,
          "internalType": "uint256",
          "name": "tokenId",
          "type": "uint256"
        }
      ],
      "name": "Transfer",
      "type": "event"
    },
    {
      "inputs": [],
      "name": "_itemSold",
      "outputs": [
        {
          "internalType": "uint256",
          "name": "_value",
          "type": "uint256"
        }
      ],
      "stateMutability": "view",
      "type": "function"
    },
    {
      "inputs": [],
      "name": "_tokenIds",
      "outputs": [
        {
          "internalType": "uint256",
          "name": "_value",
          "type": "uint256"
        }
      ],
      "stateMutability": "view",
      "type": "function"
    },
    {
      "inputs": [
        {
          "internalType": "address",
          "name": "to",
          "type": "address"
        },
        {
          "internalType": "uint256",
          "name": "tokenId",
          "type": "uint256"
        }
      ],
      "name": "approve",
      "outputs": [],
      "stateMutability": "nonpayable",
      "type": "function"
    },
    {
      "inputs": [
        {
          "internalType": "address",
          "name": "owner",
          "type": "address"
        }
      ],
      "name": "balanceOf",
      "outputs": [
        {
          "internalType": "uint256",
          "name": "",
          "type": "uint256"
        }
      ],
      "stateMutability": "view",
      "type": "function"
    },
    {
      "inputs": [
        {
          "internalType": "uint256",
          "name": "tokenId",
          "type": "uint256"
        }
      ],
      "name": "createMarketSale",
      "outputs": [],
      "stateMutability": "payable",
      "type": "function"
    },
    {
      "inputs": [
        {
          "internalType": "string",
          "name": "tokenURI",
          "type": "string"
        },
        {
          "internalType": "uint256",
          "name": "price",
          "type": "uint256"
        }
      ],
      "name": "createToken",
      "outputs": [
        {
          "internalType": "uint256",
          "name": "",
          "type": "uint256"
        }
      ],
      "stateMutability": "payable",
      "type": "function"
    },
    {
      "inputs": [],
      "name": "fetchAllItems",
      "outputs": [
        {
          "components": [
            {
              "internalType": "uint256",
              "name": "tokenId",
              "type": "uint256"
            },
            {
              "internalType": "address payable",
              "name": "seller",
              "type": "address"
            },
            {
              "internalType": "address payable",
              "name": "owner",
              "type": "address"
            },
            {
              "internalType": "uint256",
              "name": "price",
              "type": "uint256"
            },
            {
              "internalType": "bool",
              "name": "sold",
              "type": "bool"
            },
            {
              "internalType": "string",
              "name": "Uri",
              "type": "string"
            }
          ],
          "internalType": "struct NFTMarketplace.MarketItem[]",
          "name": "",
          "type": "tuple[]"
        }
      ],
      "stateMutability": "view",
      "type": "function"
    },
    {
      "inputs": [],
      "name": "fetchItemListed",
      "outputs": [
        {
          "components": [
            {
              "internalType": "uint256",
              "name": "tokenId",
              "type": "uint256"
            },
            {
              "internalType": "address payable",
              "name": "seller",
              "type": "address"
            },
            {
              "internalType": "address payable",
              "name": "owner",
              "type": "address"
            },
            {
              "internalType": "uint256",
              "name": "price",
              "type": "uint256"
            },
            {
              "internalType": "bool",
              "name": "sold",
              "type": "bool"
            },
            {
              "internalType": "string",
              "name": "Uri",
              "type": "string"
            }
          ],
          "internalType": "struct NFTMarketplace.MarketItem[]",
          "name": "",
          "type": "tuple[]"
        }
      ],
      "stateMutability": "view",
      "type": "function"
    },
    {
      "inputs": [],
      "name": "fetchMarketItems",
      "outputs": [
        {
          "components": [
            {
              "internalType": "uint256",
              "name": "tokenId",
              "type": "uint256"
            },
            {
              "internalType": "address payable",
              "name": "seller",
              "type": "address"
            },
            {
              "internalType": "address payable",
              "name": "owner",
              "type": "address"
            },
            {
              "internalType": "uint256",
              "name": "price",
              "type": "uint256"
            },
            {
              "internalType": "bool",
              "name": "sold",
              "type": "bool"
            },
            {
              "internalType": "string",
              "name": "Uri",
              "type": "string"
            }
          ],
          "internalType": "struct NFTMarketplace.MarketItem[]",
          "name": "",
          "type": "tuple[]"
        }
      ],
      "stateMutability": "view",
      "type": "function"
    },
    {
      "inputs": [],
      "name": "fetchUserPurchasedItem",
      "outputs": [
        {
          "components": [
            {
              "internalType": "uint256",
              "name": "tokenId",
              "type": "uint256"
            },
            {
              "internalType": "address payable",
              "name": "seller",
              "type": "address"
            },
            {
              "internalType": "address payable",
              "name": "owner",
              "type": "address"
            },
            {
              "internalType": "uint256",
              "name": "price",
              "type": "uint256"
            },
            {
              "internalType": "bool",
              "name": "sold",
              "type": "bool"
            },
            {
              "internalType": "string",
              "name": "Uri",
              "type": "string"
            }
          ],
          "internalType": "struct NFTMarketplace.MarketItem[]",
          "name": "",
          "type": "tuple[]"
        }
      ],
      "stateMutability": "view",
      "type": "function"
    },
    {
      "inputs": [
        {
          "internalType": "uint256",
          "name": "tokenId",
          "type": "uint256"
        }
      ],
      "name": "getApproved",
      "outputs": [
        {
          "internalType": "address",
          "name": "",
          "type": "address"
        }
      ],
      "stateMutability": "view",
      "type": "function"
    },
    {
      "inputs": [],
      "name": "getListingPrice",
      "outputs": [
        {
          "internalType": "uint256",
          "name": "",
          "type": "uint256"
        }
      ],
      "stateMutability": "view",
      "type": "function"
    },
    {
      "inputs": [
        {
          "internalType": "address",
          "name": "owner",
          "type": "address"
        },
        {
          "internalType": "address",
          "name": "operator",
          "type": "address"
        }
      ],
      "name": "isApprovedForAll",
      "outputs": [
        {
          "internalType": "bool",
          "name": "",
          "type": "bool"
        }
      ],
      "stateMutability": "view",
      "type": "function"
    },
    {
      "inputs": [],
      "name": "name",
      "outputs": [
        {
          "internalType": "string",
          "name": "",
          "type": "string"
        }
      ],
      "stateMutability": "view",
      "type": "function"
    },
    {
      "inputs": [
        {
          "internalType": "uint256",
          "name": "tokenId",
          "type": "uint256"
        }
      ],
      "name": "ownerOf",
      "outputs": [
        {
          "internalType": "address",
          "name": "",
          "type": "address"
        }
      ],
      "stateMutability": "view",
      "type": "function"
    },
    {
      "inputs": [
        {
          "internalType": "uint256",
          "name": "tokenId",
          "type": "uint256"
        },
        {
          "internalType": "uint256",
          "name": "price",
          "type": "uint256"
        }
      ],
      "name": "resellToken",
      "outputs": [],
      "stateMutability": "payable",
      "type": "function"
    },
    {
      "inputs": [
        {
          "internalType": "address",
          "name": "from",
          "type": "address"
        },
        {
          "internalType": "address",
          "name": "to",
          "type": "address"
        },
        {
          "internalType": "uint256",
          "name": "tokenId",
          "type": "uint256"
        }
      ],
      "name": "safeTransferFrom",
      "outputs": [],
      "stateMutability": "nonpayable",
      "type": "function"
    },
    {
      "inputs": [
        {
          "internalType": "address",
          "name": "from",
          "type": "address"
        },
        {
          "internalType": "address",
          "name": "to",
          "type": "address"
        },
        {
          "internalType": "uint256",
          "name": "tokenId",
          "type": "uint256"
        },
        {
          "internalType": "bytes",
          "name": "data",
          "type": "bytes"
        }
      ],
      "name": "safeTransferFrom",
      "outputs": [],
      "stateMutability": "nonpayable",
      "type": "function"
    },
    {
      "inputs": [
        {
          "internalType": "address",
          "name": "operator",
          "type": "address"
        },
        {
          "internalType": "bool",
          "name": "approved",
          "type": "bool"
        }
      ],
      "name": "setApprovalForAll",
      "outputs": [],
      "stateMutability": "nonpayable",
      "type": "function"
    },
    {
      "inputs": [
        {
          "internalType": "bytes4",
          "name": "interfaceId",
          "type": "bytes4"
        }
      ],
      "name": "supportsInterface",
      "outputs": [
        {
          "internalType": "bool",
          "name": "",
          "type": "bool"
        }
      ],
      "stateMutability": "view",
      "type": "function"
    },
    {
      "inputs": [],
      "name": "symbol",
      "outputs": [
        {
          "internalType": "string",
          "name": "",
          "type": "string"
        }
      ],
      "stateMutability": "view",
      "type": "function"
    },
    {
      "inputs": [
        {
          "internalType": "uint256",
          "name": "tokenId",
          "type": "uint256"
        }
      ],
      "name": "tokenURI",
      "outputs": [
        {
          "internalType": "string",
          "name": "",
          "type": "string"
        }
      ],
      "stateMutability": "view",
      "type": "function"
    },
    {
      "inputs": [
        {
          "internalType": "address",
          "name": "from",
          "type": "address"
        },
        {
          "internalType": "address",
          "name": "to",
          "type": "address"
        },
        {
          "internalType": "uint256",
          "name": "tokenId",
          "type": "uint256"
        }
      ],
      "name": "transferFrom",
      "outputs": [],
      "stateMutability": "nonpayable",
      "type": "function"
    }
  ],
  "bytecode": "0x60806040526658d15e176280006009553480156200001c57600080fd5b506040518060400160405280601081526020017f4d657461766572736520546f6b656e73000000000000000000000000000000008152506040518060400160405280600481526020017f4d455454000000000000000000000000000000000000000000000000000000008152508160009080519060200190620000a192919062000104565b508060019080519060200190620000ba92919062000104565b50505033600a60006101000a81548173ffffffffffffffffffffffffffffffffffffffff021916908373ffffffffffffffffffffffffffffffffffffffff16021790555062000219565b8280546200011290620001b4565b90600052602060002090601f01602090048101928262000136576000855562000182565b82601f106200015157805160ff191683800117855562000182565b8280016001018555821562000182579182015b828111156200018157825182559160200191906001019062000164565b5b50905062000191919062000195565b5090565b5b80821115620001b057600081600090555060010162000196565b5090565b60006002820490506001821680620001cd57607f821691505b60208210811415620001e457620001e3620001ea565b5b50919050565b7f4e487b7100000000000000000000000000000000000000000000000000000000600052602260045260246000fd5b6147aa80620002296000396000f3fe6080604052600436106101405760003560e01c806372b3b620116100b6578063bae5f47e1161006f578063bae5f47e14610463578063be9af5361461048e578063c87b56dd146104aa578063e1791445146104e7578063e219fc7514610512578063e985e9c51461052e57610140565b806372b3b6201461036057806395d89b411461039057806397598cc3146103bb578063a22cb465146103e6578063aa46a4001461040f578063b88d4fde1461043a57610140565b806312e855851161010857806312e855851461023e57806323b872dd146102695780632aeafc5f1461029257806342842e0e146102bd5780636352211e146102e657806370a082311461032357610140565b806301ffc9a71461014557806306fdde0314610182578063081812fc146101ad578063095ea7b3146101ea5780630f08efe014610213575b600080fd5b34801561015157600080fd5b5061016c600480360381019061016791906135fd565b61056b565b6040516101799190613c95565b60405180910390f35b34801561018e57600080fd5b5061019761064d565b6040516101a49190613cb0565b60405180910390f35b3480156101b957600080fd5b506101d460048036038101906101cf91906136a3565b6106df565b6040516101e19190613bc7565b60405180910390f35b3480156101f657600080fd5b50610211600480360381019061020c91906135c1565b610725565b005b34801561021f57600080fd5b5061022861083d565b6040516102359190613c73565b60405180910390f35b34801561024a57600080fd5b50610253610b84565b6040516102609190613ef2565b60405180910390f35b34801561027557600080fd5b50610290600480360381019061028b91906134bb565b610b8e565b005b34801561029e57600080fd5b506102a7610bee565b6040516102b49190613ef2565b60405180910390f35b3480156102c957600080fd5b506102e460048036038101906102df91906134bb565b610bfa565b005b3480156102f257600080fd5b5061030d600480360381019061030891906136a3565b610c1a565b60405161031a9190613bc7565b60405180910390f35b34801561032f57600080fd5b5061034a60048036038101906103459190613456565b610ca1565b6040516103579190613ef2565b60405180910390f35b61037a6004803603810190610375919061364f565b610d59565b6040516103879190613ef2565b60405180910390f35b34801561039c57600080fd5b506103a5610d9c565b6040516103b29190613cb0565b60405180910390f35b3480156103c757600080fd5b506103d0610e2e565b6040516103dd9190613c73565b60405180910390f35b3480156103f257600080fd5b5061040d60048036038101906104089190613585565b6110db565b005b34801561041b57600080fd5b506104246110f1565b6040516104319190613ef2565b60405180910390f35b34801561044657600080fd5b50610461600480360381019061045c919061350a565b6110fd565b005b34801561046f57600080fd5b5061047861115f565b6040516104859190613c73565b60405180910390f35b6104a860048036038101906104a391906136a3565b61152b565b005b3480156104b657600080fd5b506104d160048036038101906104cc91906136a3565b611769565b6040516104de9190613cb0565b60405180910390f35b3480156104f357600080fd5b506104fc61187c565b6040516105099190613c73565b60405180910390f35b61052c600480360381019061052791906136cc565b611c48565b005b34801561053a57600080fd5b506105556004803603810190610550919061347f565b611e3d565b6040516105629190613c95565b60405180910390f35b60007f80ac58cd000000000000000000000000000000000000000000000000000000007bffffffffffffffffffffffffffffffffffffffffffffffffffffffff1916827bffffffffffffffffffffffffffffffffffffffffffffffffffffffff1916148061063657507f5b5e139f000000000000000000000000000000000000000000000000000000007bffffffffffffffffffffffffffffffffffffffffffffffffffffffff1916827bffffffffffffffffffffffffffffffffffffffffffffffffffffffff1916145b80610646575061064582611ed1565b5b9050919050565b60606000805461065c90614173565b80601f016020809104026020016040519081016040528092919081815260200182805461068890614173565b80156106d55780601f106106aa576101008083540402835291602001916106d5565b820191906000526020600020905b8154815290600101906020018083116106b857829003601f168201915b5050505050905090565b60006106ea82611f3b565b6004600083815260200190815260200160002060009054906101000a900473ffffffffffffffffffffffffffffffffffffffff169050919050565b600061073082610c1a565b90508073ffffffffffffffffffffffffffffffffffffffff168373ffffffffffffffffffffffffffffffffffffffff1614156107a1576040517f08c379a000000000000000000000000000000000000000000000000000000000815260040161079890613e92565b60405180910390fd5b8073ffffffffffffffffffffffffffffffffffffffff166107c0611f86565b73ffffffffffffffffffffffffffffffffffffffff1614806107ef57506107ee816107e9611f86565b611e3d565b5b61082e576040517f08c379a000000000000000000000000000000000000000000000000000000000815260040161082590613ed2565b60405180910390fd5b6108388383611f8e565b505050565b6060600061084b6007612047565b905060006108596008612047565b6108636007612047565b61086d9190614077565b90506000808267ffffffffffffffff8111156108b2577f4e487b7100000000000000000000000000000000000000000000000000000000600052604160045260246000fd5b6040519080825280602002602001820160405280156108eb57816020015b6108d8613216565b8152602001906001900390816108d05790505b50905060005b84811015610b79573073ffffffffffffffffffffffffffffffffffffffff16600b60006001846109219190614021565b815260200190815260200160002060020160009054906101000a900473ffffffffffffffffffffffffffffffffffffffff1673ffffffffffffffffffffffffffffffffffffffff161415610b6657600060018261097e9190614021565b90506000600b60008381526020019081526020016000209050806040518060c0016040529081600082015481526020016001820160009054906101000a900473ffffffffffffffffffffffffffffffffffffffff1673ffffffffffffffffffffffffffffffffffffffff1673ffffffffffffffffffffffffffffffffffffffff1681526020016002820160009054906101000a900473ffffffffffffffffffffffffffffffffffffffff1673ffffffffffffffffffffffffffffffffffffffff1673ffffffffffffffffffffffffffffffffffffffff168152602001600382015481526020016004820160009054906101000a900460ff16151515158152602001600582018054610a8e90614173565b80601f0160208091040260200160405190810160405280929190818152602001828054610aba90614173565b8015610b075780601f10610adc57610100808354040283529160200191610b07565b820191906000526020600020905b815481529060010190602001808311610aea57829003601f168201915b505050505081525050848681518110610b49577f4e487b7100000000000000000000000000000000000000000000000000000000600052603260045260246000fd5b6020026020010181905250600185610b619190614021565b945050505b8080610b71906141d6565b9150506108f1565b508094505050505090565b6000600954905090565b610b9f610b99611f86565b82612055565b610bde576040517f08c379a0000000000000000000000000000000000000000000000000000000008152600401610bd590613cd2565b60405180910390fd5b610be98383836120ea565b505050565b60088060000154905081565b610c15838383604051806020016040528060008152506110fd565b505050565b600080610c26836123e4565b9050600073ffffffffffffffffffffffffffffffffffffffff168173ffffffffffffffffffffffffffffffffffffffff161415610c98576040517f08c379a0000000000000000000000000000000000000000000000000000000008152600401610c8f90613e72565b60405180910390fd5b80915050919050565b60008073ffffffffffffffffffffffffffffffffffffffff168273ffffffffffffffffffffffffffffffffffffffff161415610d12576040517f08c379a0000000000000000000000000000000000000000000000000000000008152600401610d0990613dd2565b60405180910390fd5b600360008373ffffffffffffffffffffffffffffffffffffffff1673ffffffffffffffffffffffffffffffffffffffff168152602001908152602001600020549050919050565b6000610d656007612421565b6000610d716007612047565b9050610d7d3382612437565b610d878185612655565b610d928184866126c9565b8091505092915050565b606060018054610dab90614173565b80601f0160208091040260200160405190810160405280929190818152602001828054610dd790614173565b8015610e245780601f10610df957610100808354040283529160200191610e24565b820191906000526020600020905b815481529060010190602001808311610e0757829003601f168201915b5050505050905090565b60606000610e3c6007612047565b90506000808267ffffffffffffffff811115610e81577f4e487b7100000000000000000000000000000000000000000000000000000000600052604160045260246000fd5b604051908082528060200260200182016040528015610eba57816020015b610ea7613216565b815260200190600190039081610e9f5790505b50905060005b838110156110d1576000600182610ed79190614021565b90506000600b60008381526020019081526020016000209050806040518060c0016040529081600082015481526020016001820160009054906101000a900473ffffffffffffffffffffffffffffffffffffffff1673ffffffffffffffffffffffffffffffffffffffff1673ffffffffffffffffffffffffffffffffffffffff1681526020016002820160009054906101000a900473ffffffffffffffffffffffffffffffffffffffff1673ffffffffffffffffffffffffffffffffffffffff1673ffffffffffffffffffffffffffffffffffffffff168152602001600382015481526020016004820160009054906101000a900460ff16151515158152602001600582018054610fe790614173565b80601f016020809104026020016040519081016040528092919081815260200182805461101390614173565b80156110605780601f1061103557610100808354040283529160200191611060565b820191906000526020600020905b81548152906001019060200180831161104357829003601f168201915b5050505050815250508486815181106110a2577f4e487b7100000000000000000000000000000000000000000000000000000000600052603260045260246000fd5b60200260200101819052506001856110ba9190614021565b9450505080806110c9906141d6565b915050610ec0565b5080935050505090565b6110ed6110e6611f86565b83836128f0565b5050565b60078060000154905081565b61110e611108611f86565b83612055565b61114d576040517f08c379a000000000000000000000000000000000000000000000000000000000815260040161114490613cd2565b60405180910390fd5b61115984848484612a5d565b50505050565b6060600061116d6007612047565b905060008060005b83811015611216573373ffffffffffffffffffffffffffffffffffffffff16600b60006001846111a59190614021565b815260200190815260200160002060020160009054906101000a900473ffffffffffffffffffffffffffffffffffffffff1673ffffffffffffffffffffffffffffffffffffffff161415611203576001836112009190614021565b92505b808061120e906141d6565b915050611175565b5060008267ffffffffffffffff811115611259577f4e487b7100000000000000000000000000000000000000000000000000000000600052604160045260246000fd5b60405190808252806020026020018201604052801561129257816020015b61127f613216565b8152602001906001900390816112775790505b50905060005b84811015611520573373ffffffffffffffffffffffffffffffffffffffff16600b60006001846112c89190614021565b815260200190815260200160002060020160009054906101000a900473ffffffffffffffffffffffffffffffffffffffff1673ffffffffffffffffffffffffffffffffffffffff16141561150d5760006001826113259190614021565b90506000600b60008381526020019081526020016000209050806040518060c0016040529081600082015481526020016001820160009054906101000a900473ffffffffffffffffffffffffffffffffffffffff1673ffffffffffffffffffffffffffffffffffffffff1673ffffffffffffffffffffffffffffffffffffffff1681526020016002820160009054906101000a900473ffffffffffffffffffffffffffffffffffffffff1673ffffffffffffffffffffffffffffffffffffffff1673ffffffffffffffffffffffffffffffffffffffff168152602001600382015481526020016004820160009054906101000a900460ff1615151515815260200160058201805461143590614173565b80601f016020809104026020016040519081016040528092919081815260200182805461146190614173565b80156114ae5780601f10611483576101008083540402835291602001916114ae565b820191906000526020600020905b81548152906001019060200180831161149157829003601f168201915b5050505050815250508486815181106114f0577f4e487b7100000000000000000000000000000000000000000000000000000000600052603260045260246000fd5b60200260200101819052506001856115089190614021565b945050505b8080611518906141d6565b915050611298565b508094505050505090565b6000600b60008381526020019081526020016000206003015490506000600b600084815260200190815260200160002060010160009054906101000a900473ffffffffffffffffffffffffffffffffffffffff1690508134146115c3576040517f08c379a00000000000000000000000000000000000000000000000000000000081526004016115ba90613e32565b60405180910390fd5b33600b600085815260200190815260200160002060020160006101000a81548173ffffffffffffffffffffffffffffffffffffffff021916908373ffffffffffffffffffffffffffffffffffffffff1602179055506001600b600085815260200190815260200160002060040160006101000a81548160ff0219169083151502179055506000600b600085815260200190815260200160002060010160006101000a81548173ffffffffffffffffffffffffffffffffffffffff021916908373ffffffffffffffffffffffffffffffffffffffff1602179055506116a76008612421565b6116b23033856120ea565b600a60009054906101000a900473ffffffffffffffffffffffffffffffffffffffff1673ffffffffffffffffffffffffffffffffffffffff166108fc6009549081150290604051600060405180830381858888f1935050505015801561171c573d6000803e3d6000fd5b508073ffffffffffffffffffffffffffffffffffffffff166108fc349081150290604051600060405180830381858888f19350505050158015611763573d6000803e3d6000fd5b50505050565b606061177482611f3b565b600060066000848152602001908152602001600020805461179490614173565b80601f01602080910402602001604051908101604052809291908181526020018280546117c090614173565b801561180d5780601f106117e25761010080835404028352916020019161180d565b820191906000526020600020905b8154815290600101906020018083116117f057829003601f168201915b50505050509050600061181e612ab9565b9050600081511415611834578192505050611877565b600082511115611869578082604051602001611851929190613ba3565b60405160208183030381529060405292505050611877565b61187284612ad0565b925050505b919050565b6060600061188a6007612047565b905060008060005b83811015611933573373ffffffffffffffffffffffffffffffffffffffff16600b60006001846118c29190614021565b815260200190815260200160002060010160009054906101000a900473ffffffffffffffffffffffffffffffffffffffff1673ffffffffffffffffffffffffffffffffffffffff1614156119205760018361191d9190614021565b92505b808061192b906141d6565b915050611892565b5060008267ffffffffffffffff811115611976577f4e487b7100000000000000000000000000000000000000000000000000000000600052604160045260246000fd5b6040519080825280602002602001820160405280156119af57816020015b61199c613216565b8152602001906001900390816119945790505b50905060005b84811015611c3d573373ffffffffffffffffffffffffffffffffffffffff16600b60006001846119e59190614021565b815260200190815260200160002060010160009054906101000a900473ffffffffffffffffffffffffffffffffffffffff1673ffffffffffffffffffffffffffffffffffffffff161415611c2a576000600182611a429190614021565b90506000600b60008381526020019081526020016000209050806040518060c0016040529081600082015481526020016001820160009054906101000a900473ffffffffffffffffffffffffffffffffffffffff1673ffffffffffffffffffffffffffffffffffffffff1673ffffffffffffffffffffffffffffffffffffffff1681526020016002820160009054906101000a900473ffffffffffffffffffffffffffffffffffffffff1673ffffffffffffffffffffffffffffffffffffffff1673ffffffffffffffffffffffffffffffffffffffff168152602001600382015481526020016004820160009054906101000a900460ff16151515158152602001600582018054611b5290614173565b80601f0160208091040260200160405190810160405280929190818152602001828054611b7e90614173565b8015611bcb5780601f10611ba057610100808354040283529160200191611bcb565b820191906000526020600020905b815481529060010190602001808311611bae57829003601f168201915b505050505081525050848681518110611c0d577f4e487b7100000000000000000000000000000000000000000000000000000000600052603260045260246000fd5b6020026020010181905250600185611c259190614021565b945050505b8080611c35906141d6565b9150506119b5565b508094505050505090565b3373ffffffffffffffffffffffffffffffffffffffff16600b600084815260200190815260200160002060020160009054906101000a900473ffffffffffffffffffffffffffffffffffffffff1673ffffffffffffffffffffffffffffffffffffffff1614611cec576040517f08c379a0000000000000000000000000000000000000000000000000000000008152600401611ce390613df2565b60405180910390fd5b6009543414611d30576040517f08c379a0000000000000000000000000000000000000000000000000000000008152600401611d2790613eb2565b60405180910390fd5b6000600b600084815260200190815260200160002060040160006101000a81548160ff02191690831515021790555080600b60008481526020019081526020016000206003018190555033600b600084815260200190815260200160002060010160006101000a81548173ffffffffffffffffffffffffffffffffffffffff021916908373ffffffffffffffffffffffffffffffffffffffff16021790555030600b600084815260200190815260200160002060020160006101000a81548173ffffffffffffffffffffffffffffffffffffffff021916908373ffffffffffffffffffffffffffffffffffffffff160217905550611e2e6008612b38565b611e393330846120ea565b5050565b6000600560008473ffffffffffffffffffffffffffffffffffffffff1673ffffffffffffffffffffffffffffffffffffffff16815260200190815260200160002060008373ffffffffffffffffffffffffffffffffffffffff1673ffffffffffffffffffffffffffffffffffffffff16815260200190815260200160002060009054906101000a900460ff16905092915050565b60007f01ffc9a7000000000000000000000000000000000000000000000000000000007bffffffffffffffffffffffffffffffffffffffffffffffffffffffff1916827bffffffffffffffffffffffffffffffffffffffffffffffffffffffff1916149050919050565b611f4481612b94565b611f83576040517f08c379a0000000000000000000000000000000000000000000000000000000008152600401611f7a90613e72565b60405180910390fd5b50565b600033905090565b816004600083815260200190815260200160002060006101000a81548173ffffffffffffffffffffffffffffffffffffffff021916908373ffffffffffffffffffffffffffffffffffffffff160217905550808273ffffffffffffffffffffffffffffffffffffffff1661200183610c1a565b73ffffffffffffffffffffffffffffffffffffffff167f8c5be1e5ebec7d5bd14f71427d1e84f3dd0314c0f7b2291e5b200ac8c7c3b92560405160405180910390a45050565b600081600001549050919050565b60008061206183610c1a565b90508073ffffffffffffffffffffffffffffffffffffffff168473ffffffffffffffffffffffffffffffffffffffff1614806120a357506120a28185611e3d565b5b806120e157508373ffffffffffffffffffffffffffffffffffffffff166120c9846106df565b73ffffffffffffffffffffffffffffffffffffffff16145b91505092915050565b8273ffffffffffffffffffffffffffffffffffffffff1661210a82610c1a565b73ffffffffffffffffffffffffffffffffffffffff1614612160576040517f08c379a000000000000000000000000000000000000000000000000000000000815260040161215790613d32565b60405180910390fd5b600073ffffffffffffffffffffffffffffffffffffffff168273ffffffffffffffffffffffffffffffffffffffff1614156121d0576040517f08c379a00000000000000000000000000000000000000000000000000000000081526004016121c790613d92565b60405180910390fd5b6121dd8383836001612bd5565b8273ffffffffffffffffffffffffffffffffffffffff166121fd82610c1a565b73ffffffffffffffffffffffffffffffffffffffff1614612253576040517f08c379a000000000000000000000000000000000000000000000000000000000815260040161224a90613d32565b60405180910390fd5b6004600082815260200190815260200160002060006101000a81549073ffffffffffffffffffffffffffffffffffffffff02191690556001600360008573ffffffffffffffffffffffffffffffffffffffff1673ffffffffffffffffffffffffffffffffffffffff168152602001908152602001600020600082825403925050819055506001600360008473ffffffffffffffffffffffffffffffffffffffff1673ffffffffffffffffffffffffffffffffffffffff16815260200190815260200160002060008282540192505081905550816002600083815260200190815260200160002060006101000a81548173ffffffffffffffffffffffffffffffffffffffff021916908373ffffffffffffffffffffffffffffffffffffffff160217905550808273ffffffffffffffffffffffffffffffffffffffff168473ffffffffffffffffffffffffffffffffffffffff167fddf252ad1be2c89b69c2b068fc378daa952ba7f163c4a11628f55a4df523b3ef60405160405180910390a46123df8383836001612cfb565b505050565b60006002600083815260200190815260200160002060009054906101000a900473ffffffffffffffffffffffffffffffffffffffff169050919050565b6001816000016000828254019250508190555050565b600073ffffffffffffffffffffffffffffffffffffffff168273ffffffffffffffffffffffffffffffffffffffff1614156124a7576040517f08c379a000000000000000000000000000000000000000000000000000000000815260040161249e90613e52565b60405180910390fd5b6124b081612b94565b156124f0576040517f08c379a00000000000000000000000000000000000000000000000000000000081526004016124e790613d72565b60405180910390fd5b6124fe600083836001612bd5565b61250781612b94565b15612547576040517f08c379a000000000000000000000000000000000000000000000000000000000815260040161253e90613d72565b60405180910390fd5b6001600360008473ffffffffffffffffffffffffffffffffffffffff1673ffffffffffffffffffffffffffffffffffffffff16815260200190815260200160002060008282540192505081905550816002600083815260200190815260200160002060006101000a81548173ffffffffffffffffffffffffffffffffffffffff021916908373ffffffffffffffffffffffffffffffffffffffff160217905550808273ffffffffffffffffffffffffffffffffffffffff16600073ffffffffffffffffffffffffffffffffffffffff167fddf252ad1be2c89b69c2b068fc378daa952ba7f163c4a11628f55a4df523b3ef60405160405180910390a4612651600083836001612cfb565b5050565b61265e82612b94565b61269d576040517f08c379a000000000000000000000000000000000000000000000000000000000815260040161269490613e12565b60405180910390fd5b806006600084815260200190815260200160002090805190602001906126c492919061327a565b505050565b6000821161270c576040517f08c379a000000000000000000000000000000000000000000000000000000000815260040161270390613d52565b60405180910390fd5b6009543414612750576040517f08c379a000000000000000000000000000000000000000000000000000000000815260040161274790613eb2565b60405180910390fd5b6040518060c001604052808481526020013373ffffffffffffffffffffffffffffffffffffffff1681526020013073ffffffffffffffffffffffffffffffffffffffff16815260200183815260200160001515815260200182815250600b60008581526020019081526020016000206000820151816000015560208201518160010160006101000a81548173ffffffffffffffffffffffffffffffffffffffff021916908373ffffffffffffffffffffffffffffffffffffffff16021790555060408201518160020160006101000a81548173ffffffffffffffffffffffffffffffffffffffff021916908373ffffffffffffffffffffffffffffffffffffffff1602179055506060820151816003015560808201518160040160006101000a81548160ff02191690831515021790555060a082015181600501908051906020019061289d92919061327a565b509050506128ac3330856120ea565b827fb640004f1d14576d0c209e240cad0410e0d8c0c33a09375861fbadae2588a98d33308560006040516128e39493929190613be2565b60405180910390a2505050565b8173ffffffffffffffffffffffffffffffffffffffff168373ffffffffffffffffffffffffffffffffffffffff16141561295f576040517f08c379a000000000000000000000000000000000000000000000000000000000815260040161295690613db2565b60405180910390fd5b80600560008573ffffffffffffffffffffffffffffffffffffffff1673ffffffffffffffffffffffffffffffffffffffff16815260200190815260200160002060008473ffffffffffffffffffffffffffffffffffffffff1673ffffffffffffffffffffffffffffffffffffffff16815260200190815260200160002060006101000a81548160ff0219169083151502179055508173ffffffffffffffffffffffffffffffffffffffff168373ffffffffffffffffffffffffffffffffffffffff167f17307eab39ab6107e8899845ad3d59bd9653f200f220920489ca2b5937696c3183604051612a509190613c95565b60405180910390a3505050565b612a688484846120ea565b612a7484848484612d01565b612ab3576040517f08c379a0000000000000000000000000000000000000000000000000000000008152600401612aaa90613d12565b60405180910390fd5b50505050565b606060405180602001604052806000815250905090565b6060612adb82611f3b565b6000612ae5612ab9565b90506000815111612b055760405180602001604052806000815250612b30565b80612b0f84612e98565b604051602001612b20929190613ba3565b6040516020818303038152906040525b915050919050565b60008160000154905060008111612b84576040517f08c379a0000000000000000000000000000000000000000000000000000000008152600401612b7b90613cf2565b60405180910390fd5b6001810382600001819055505050565b60008073ffffffffffffffffffffffffffffffffffffffff16612bb6836123e4565b73ffffffffffffffffffffffffffffffffffffffff1614159050919050565b6001811115612cf557600073ffffffffffffffffffffffffffffffffffffffff168473ffffffffffffffffffffffffffffffffffffffff1614612c695780600360008673ffffffffffffffffffffffffffffffffffffffff1673ffffffffffffffffffffffffffffffffffffffff1681526020019081526020016000206000828254612c619190614077565b925050819055505b600073ffffffffffffffffffffffffffffffffffffffff168373ffffffffffffffffffffffffffffffffffffffff1614612cf45780600360008573ffffffffffffffffffffffffffffffffffffffff1673ffffffffffffffffffffffffffffffffffffffff1681526020019081526020016000206000828254612cec9190614021565b925050819055505b5b50505050565b50505050565b6000612d228473ffffffffffffffffffffffffffffffffffffffff16612fbc565b15612e8b578373ffffffffffffffffffffffffffffffffffffffff1663150b7a02612d4b611f86565b8786866040518563ffffffff1660e01b8152600401612d6d9493929190613c27565b602060405180830381600087803b158015612d8757600080fd5b505af1925050508015612db857506040513d601f19601f82011682018060405250810190612db59190613626565b60015b612e3b573d8060008114612de8576040519150601f19603f3d011682016040523d82523d6000602084013e612ded565b606091505b50600081511415612e33576040517f08c379a0000000000000000000000000000000000000000000000000000000008152600401612e2a90613d12565b60405180910390fd5b805181602001fd5b63150b7a0260e01b7bffffffffffffffffffffffffffffffffffffffffffffffffffffffff1916817bffffffffffffffffffffffffffffffffffffffffffffffffffffffff191614915050612e90565b600190505b949350505050565b606060006001612ea784612fdf565b01905060008167ffffffffffffffff811115612eec577f4e487b7100000000000000000000000000000000000000000000000000000000600052604160045260246000fd5b6040519080825280601f01601f191660200182016040528015612f1e5781602001600182028036833780820191505090505b509050600082602001820190505b600115612fb1578080600190039150507f3031323334353637383961626364656600000000000000000000000000000000600a86061a8153600a8581612f9b577f4e487b7100000000000000000000000000000000000000000000000000000000600052601260045260246000fd5b0494506000851415612fac57612fb1565b612f2c565b819350505050919050565b6000808273ffffffffffffffffffffffffffffffffffffffff163b119050919050565b600080600090507a184f03e93ff9f4daa797ed6e38ed64bf6a1f0100000000000000008310613063577a184f03e93ff9f4daa797ed6e38ed64bf6a1f0100000000000000008381613059577f4e487b7100000000000000000000000000000000000000000000000000000000600052601260045260246000fd5b0492506040810190505b6d04ee2d6d415b85acef810000000083106130c6576d04ee2d6d415b85acef810000000083816130bc577f4e487b7100000000000000000000000000000000000000000000000000000000600052601260045260246000fd5b0492506020810190505b662386f26fc10000831061311b57662386f26fc100008381613111577f4e487b7100000000000000000000000000000000000000000000000000000000600052601260045260246000fd5b0492506010810190505b6305f5e100831061316a576305f5e1008381613160577f4e487b7100000000000000000000000000000000000000000000000000000000600052601260045260246000fd5b0492506008810190505b61271083106131b55761271083816131ab577f4e487b7100000000000000000000000000000000000000000000000000000000600052601260045260246000fd5b0492506004810190505b606483106131fe57606483816131f4577f4e487b7100000000000000000000000000000000000000000000000000000000600052601260045260246000fd5b0492506002810190505b600a831061320d576001810190505b80915050919050565b6040518060c0016040528060008152602001600073ffffffffffffffffffffffffffffffffffffffff168152602001600073ffffffffffffffffffffffffffffffffffffffff16815260200160008152602001600015158152602001606081525090565b82805461328690614173565b90600052602060002090601f0160209004810192826132a857600085556132ef565b82601f106132c157805160ff19168380011785556132ef565b828001600101855582156132ef579182015b828111156132ee5782518255916020019190600101906132d3565b5b5090506132fc9190613300565b5090565b5b80821115613319576000816000905550600101613301565b5090565b600061333061332b84613f32565b613f0d565b90508281526020810184848401111561334857600080fd5b613353848285614131565b509392505050565b600061336e61336984613f63565b613f0d565b90508281526020810184848401111561338657600080fd5b613391848285614131565b509392505050565b6000813590506133a881614718565b92915050565b6000813590506133bd8161472f565b92915050565b6000813590506133d281614746565b92915050565b6000815190506133e781614746565b92915050565b600082601f8301126133fe57600080fd5b813561340e84826020860161331d565b91505092915050565b600082601f83011261342857600080fd5b813561343884826020860161335b565b91505092915050565b6000813590506134508161475d565b92915050565b60006020828403121561346857600080fd5b600061347684828501613399565b91505092915050565b6000806040838503121561349257600080fd5b60006134a085828601613399565b92505060206134b185828601613399565b9150509250929050565b6000806000606084860312156134d057600080fd5b60006134de86828701613399565b93505060206134ef86828701613399565b925050604061350086828701613441565b9150509250925092565b6000806000806080858703121561352057600080fd5b600061352e87828801613399565b945050602061353f87828801613399565b935050604061355087828801613441565b925050606085013567ffffffffffffffff81111561356d57600080fd5b613579878288016133ed565b91505092959194509250565b6000806040838503121561359857600080fd5b60006135a685828601613399565b92505060206135b7858286016133ae565b9150509250929050565b600080604083850312156135d457600080fd5b60006135e285828601613399565b92505060206135f385828601613441565b9150509250929050565b60006020828403121561360f57600080fd5b600061361d848285016133c3565b91505092915050565b60006020828403121561363857600080fd5b6000613646848285016133d8565b91505092915050565b6000806040838503121561366257600080fd5b600083013567ffffffffffffffff81111561367c57600080fd5b61368885828601613417565b925050602061369985828601613441565b9150509250929050565b6000602082840312156136b557600080fd5b60006136c384828501613441565b91505092915050565b600080604083850312156136df57600080fd5b60006136ed85828601613441565b92505060206136fe85828601613441565b9150509250929050565b60006137148383613afc565b905092915050565b613725816140bd565b82525050565b613734816140ab565b82525050565b600061374582613fa4565b61374f8185613fd2565b93508360208202850161376185613f94565b8060005b8581101561379d578484038952815161377e8582613708565b945061378983613fc5565b925060208a01995050600181019050613765565b50829750879550505050505092915050565b6137b8816140cf565b82525050565b6137c7816140cf565b82525050565b60006137d882613faf565b6137e28185613fe3565b93506137f2818560208601614140565b6137fb816142ac565b840191505092915050565b600061381182613fba565b61381b8185613ff4565b935061382b818560208601614140565b613834816142ac565b840191505092915050565b600061384a82613fba565b6138548185614005565b9350613864818560208601614140565b61386d816142ac565b840191505092915050565b600061388382613fba565b61388d8185614016565b935061389d818560208601614140565b80840191505092915050565b60006138b6602d83614005565b91506138c1826142bd565b604082019050919050565b60006138d9601b83614005565b91506138e48261430c565b602082019050919050565b60006138fc603283614005565b915061390782614335565b604082019050919050565b600061391f602583614005565b915061392a82614384565b604082019050919050565b6000613942601383614005565b915061394d826143d3565b602082019050919050565b6000613965601c83614005565b9150613970826143fc565b602082019050919050565b6000613988602483614005565b915061399382614425565b604082019050919050565b60006139ab601983614005565b91506139b682614474565b602082019050919050565b60006139ce602983614005565b91506139d98261449d565b604082019050919050565b60006139f1602283614005565b91506139fc826144ec565b604082019050919050565b6000613a14602e83614005565b9150613a1f8261453b565b604082019050919050565b6000613a37604083614005565b9150613a428261458a565b604082019050919050565b6000613a5a602083614005565b9150613a65826145d9565b602082019050919050565b6000613a7d601883614005565b9150613a8882614602565b602082019050919050565b6000613aa0602183614005565b9150613aab8261462b565b604082019050919050565b6000613ac3602483614005565b9150613ace8261467a565b604082019050919050565b6000613ae6603d83614005565b9150613af1826146c9565b604082019050919050565b600060c083016000830151613b146000860182613b85565b506020830151613b27602086018261371c565b506040830151613b3a604086018261371c565b506060830151613b4d6060860182613b85565b506080830151613b6060808601826137af565b5060a083015184820360a0860152613b788282613806565b9150508091505092915050565b613b8e81614127565b82525050565b613b9d81614127565b82525050565b6000613baf8285613878565b9150613bbb8284613878565b91508190509392505050565b6000602082019050613bdc600083018461372b565b92915050565b6000608082019050613bf7600083018761372b565b613c04602083018661372b565b613c116040830185613b94565b613c1e60608301846137be565b95945050505050565b6000608082019050613c3c600083018761372b565b613c49602083018661372b565b613c566040830185613b94565b8181036060830152613c6881846137cd565b905095945050505050565b60006020820190508181036000830152613c8d818461373a565b905092915050565b6000602082019050613caa60008301846137be565b92915050565b60006020820190508181036000830152613cca818461383f565b905092915050565b60006020820190508181036000830152613ceb816138a9565b9050919050565b60006020820190508181036000830152613d0b816138cc565b9050919050565b60006020820190508181036000830152613d2b816138ef565b9050919050565b60006020820190508181036000830152613d4b81613912565b9050919050565b60006020820190508181036000830152613d6b81613935565b9050919050565b60006020820190508181036000830152613d8b81613958565b9050919050565b60006020820190508181036000830152613dab8161397b565b9050919050565b60006020820190508181036000830152613dcb8161399e565b9050919050565b60006020820190508181036000830152613deb816139c1565b9050919050565b60006020820190508181036000830152613e0b816139e4565b9050919050565b60006020820190508181036000830152613e2b81613a07565b9050919050565b60006020820190508181036000830152613e4b81613a2a565b9050919050565b60006020820190508181036000830152613e6b81613a4d565b9050919050565b60006020820190508181036000830152613e8b81613a70565b9050919050565b60006020820190508181036000830152613eab81613a93565b9050919050565b60006020820190508181036000830152613ecb81613ab6565b9050919050565b60006020820190508181036000830152613eeb81613ad9565b9050919050565b6000602082019050613f076000830184613b94565b92915050565b6000613f17613f28565b9050613f2382826141a5565b919050565b6000604051905090565b600067ffffffffffffffff821115613f4d57613f4c61427d565b5b613f56826142ac565b9050602081019050919050565b600067ffffffffffffffff821115613f7e57613f7d61427d565b5b613f87826142ac565b9050602081019050919050565b6000819050602082019050919050565b600081519050919050565b600081519050919050565b600081519050919050565b6000602082019050919050565b600082825260208201905092915050565b600082825260208201905092915050565b600082825260208201905092915050565b600082825260208201905092915050565b600081905092915050565b600061402c82614127565b915061403783614127565b9250827fffffffffffffffffffffffffffffffffffffffffffffffffffffffffffffffff0382111561406c5761406b61421f565b5b828201905092915050565b600061408282614127565b915061408d83614127565b9250828210156140a05761409f61421f565b5b828203905092915050565b60006140b682614107565b9050919050565b60006140c882614107565b9050919050565b60008115159050919050565b60007fffffffff0000000000000000000000000000000000000000000000000000000082169050919050565b600073ffffffffffffffffffffffffffffffffffffffff82169050919050565b6000819050919050565b82818337600083830152505050565b60005b8381101561415e578082015181840152602081019050614143565b8381111561416d576000848401525b50505050565b6000600282049050600182168061418b57607f821691505b6020821081141561419f5761419e61424e565b5b50919050565b6141ae826142ac565b810181811067ffffffffffffffff821117156141cd576141cc61427d565b5b80604052505050565b60006141e182614127565b91507fffffffffffffffffffffffffffffffffffffffffffffffffffffffffffffffff8214156142145761421361421f565b5b600182019050919050565b7f4e487b7100000000000000000000000000000000000000000000000000000000600052601160045260246000fd5b7f4e487b7100000000000000000000000000000000000000000000000000000000600052602260045260246000fd5b7f4e487b7100000000000000000000000000000000000000000000000000000000600052604160045260246000fd5b6000601f19601f8301169050919050565b7f4552433732313a2063616c6c6572206973206e6f7420746f6b656e206f776e6560008201527f72206f7220617070726f76656400000000000000000000000000000000000000602082015250565b7f436f756e7465723a2064656372656d656e74206f766572666c6f770000000000600082015250565b7f4552433732313a207472616e7366657220746f206e6f6e20455243373231526560008201527f63656976657220696d706c656d656e7465720000000000000000000000000000602082015250565b7f4552433732313a207472616e736665722066726f6d20696e636f72726563742060008201527f6f776e6572000000000000000000000000000000000000000000000000000000602082015250565b7f5072696365206d75737420626520312077656900000000000000000000000000600082015250565b7f4552433732313a20746f6b656e20616c7265616479206d696e74656400000000600082015250565b7f4552433732313a207472616e7366657220746f20746865207a65726f2061646460008201527f7265737300000000000000000000000000000000000000000000000000000000602082015250565b7f4552433732313a20617070726f766520746f2063616c6c657200000000000000600082015250565b7f4552433732313a2061646472657373207a65726f206973206e6f74206120766160008201527f6c6964206f776e65720000000000000000000000000000000000000000000000602082015250565b7f6f6e6c79206f776e65722063616e20706572666f726d2074686973206163746960008201527f6f6e000000000000000000000000000000000000000000000000000000000000602082015250565b7f45524337323155524953746f726167653a2055524920736574206f66206e6f6e60008201527f6578697374656e7420746f6b656e000000000000000000000000000000000000602082015250565b7f506c65617365207375626d6974207468652061736b696e67207072696365206960008201527f6e206f7264657220746f20636f6d706c65746520746865207075726368617365602082015250565b7f4552433732313a206d696e7420746f20746865207a65726f2061646472657373600082015250565b7f4552433732313a20696e76616c696420746f6b656e2049440000000000000000600082015250565b7f4552433732313a20617070726f76616c20746f2063757272656e74206f776e6560008201527f7200000000000000000000000000000000000000000000000000000000000000602082015250565b7f5072696365206d75737420626520657175616c20746f206c697374696e67207060008201527f7269636500000000000000000000000000000000000000000000000000000000602082015250565b7f4552433732313a20617070726f76652063616c6c6572206973206e6f7420746f60008201527f6b656e206f776e6572206f7220617070726f76656420666f7220616c6c000000602082015250565b614721816140ab565b811461472c57600080fd5b50565b614738816140cf565b811461474357600080fd5b50565b61474f816140db565b811461475a57600080fd5b50565b61476681614127565b811461477157600080fd5b5056fea2646970667358221220fabd0cad410f269110b094771492078c5abe5ecbc0795d7b8dfd5a359bc6b87764736f6c63430008040033",
  "linkReferences": {},
  "deployedLinkReferences": {}
}