{
  "_format": "hh-sol-artifact-1",
  "contractName": "NFTMarketplace",
  "sourceName": "contracts/NFTMarketplace.sol",
  "abi": [
    {
      "inputs": [],
      "stateMutability": "nonpayable",
      "type": "constructor"
    },
    {
      "anonymous": false,
      "inputs": [
        {
          "indexed": true,
          "internalType": "address",
          "name": "owner",
          "type": "address"
        },
        {
          "indexed": true,
          "internalType": "address",
          "name": "approved",
          "type": "address"
        },
        {
          "indexed": true,
          "internalType": "uint256",
          "name": "tokenId",
          "type": "uint256"
        }
      ],
      "name": "Approval",
      "type": "event"
    },
    {
      "anonymous": false,
      "inputs": [
        {
          "indexed": true,
          "internalType": "address",
          "name": "owner",
          "type": "address"
        },
        {
          "indexed": true,
          "internalType": "address",
          "name": "operator",
          "type": "address"
        },
        {
          "indexed": false,
          "internalType": "bool",
          "name": "approved",
          "type": "bool"
        }
      ],
      "name": "ApprovalForAll",
      "type": "event"
    },
    {
      "anonymous": false,
      "inputs": [
        {
          "indexed": true,
          "internalType": "uint256",
          "name": "tokenId",
          "type": "uint256"
        },
        {
          "indexed": false,
          "internalType": "address",
          "name": "seller",
          "type": "address"
        },
        {
          "indexed": false,
          "internalType": "address",
          "name": "owner",
          "type": "address"
        },
        {
          "indexed": false,
          "internalType": "uint256",
          "name": "price",
          "type": "uint256"
        },
        {
          "indexed": false,
          "internalType": "bool",
          "name": "sold",
          "type": "bool"
        }
      ],
      "name": "MarketItemCreated",
      "type": "event"
    },
    {
      "anonymous": false,
      "inputs": [
        {
          "indexed": true,
          "internalType": "address",
          "name": "from",
          "type": "address"
        },
        {
          "indexed": true,
          "internalType": "address",
          "name": "to",
          "type": "address"
        },
        {
          "indexed": true,
          "internalType": "uint256",
          "name": "tokenId",
          "type": "uint256"
        }
      ],
      "name": "Transfer",
      "type": "event"
    },
    {
      "inputs": [],
      "name": "_itemSold",
      "outputs": [
        {
          "internalType": "uint256",
          "name": "_value",
          "type": "uint256"
        }
      ],
      "stateMutability": "view",
      "type": "function"
    },
    {
      "inputs": [],
      "name": "_tokenIds",
      "outputs": [
        {
          "internalType": "uint256",
          "name": "_value",
          "type": "uint256"
        }
      ],
      "stateMutability": "view",
      "type": "function"
    },
    {
      "inputs": [
        {
          "internalType": "address",
          "name": "to",
          "type": "address"
        },
        {
          "internalType": "uint256",
          "name": "tokenId",
          "type": "uint256"
        }
      ],
      "name": "approve",
      "outputs": [],
      "stateMutability": "nonpayable",
      "type": "function"
    },
    {
      "inputs": [
        {
          "internalType": "address",
          "name": "owner",
          "type": "address"
        }
      ],
      "name": "balanceOf",
      "outputs": [
        {
          "internalType": "uint256",
          "name": "",
          "type": "uint256"
        }
      ],
      "stateMutability": "view",
      "type": "function"
    },
    {
      "inputs": [
        {
          "internalType": "uint256",
          "name": "tokenId",
          "type": "uint256"
        }
      ],
      "name": "createMarketSale",
      "outputs": [],
      "stateMutability": "payable",
      "type": "function"
    },
    {
      "inputs": [
        {
          "internalType": "string",
          "name": "tokenURI",
          "type": "string"
        },
        {
          "internalType": "uint256",
          "name": "price",
          "type": "uint256"
        },
        {
          "internalType": "string",
          "name": "artistName",
          "type": "string"
        }
      ],
      "name": "createToken",
      "outputs": [
        {
          "internalType": "uint256",
          "name": "",
          "type": "uint256"
        }
      ],
      "stateMutability": "payable",
      "type": "function"
    },
    {
      "inputs": [],
      "name": "fetchAllItems",
      "outputs": [
        {
          "components": [
            {
              "internalType": "uint256",
              "name": "tokenId",
              "type": "uint256"
            },
            {
              "internalType": "address payable",
              "name": "seller",
              "type": "address"
            },
            {
              "internalType": "address payable",
              "name": "owner",
              "type": "address"
            },
            {
              "internalType": "uint256",
              "name": "price",
              "type": "uint256"
            },
            {
              "internalType": "bool",
              "name": "sold",
              "type": "bool"
            },
            {
              "internalType": "string",
              "name": "Uri",
              "type": "string"
            },
            {
              "internalType": "string",
              "name": "artistName",
              "type": "string"
            }
          ],
          "internalType": "struct NFTMarketplace.MarketItem[]",
          "name": "",
          "type": "tuple[]"
        }
      ],
      "stateMutability": "view",
      "type": "function"
    },
    {
      "inputs": [],
      "name": "fetchItemListed",
      "outputs": [
        {
          "components": [
            {
              "internalType": "uint256",
              "name": "tokenId",
              "type": "uint256"
            },
            {
              "internalType": "address payable",
              "name": "seller",
              "type": "address"
            },
            {
              "internalType": "address payable",
              "name": "owner",
              "type": "address"
            },
            {
              "internalType": "uint256",
              "name": "price",
              "type": "uint256"
            },
            {
              "internalType": "bool",
              "name": "sold",
              "type": "bool"
            },
            {
              "internalType": "string",
              "name": "Uri",
              "type": "string"
            },
            {
              "internalType": "string",
              "name": "artistName",
              "type": "string"
            }
          ],
          "internalType": "struct NFTMarketplace.MarketItem[]",
          "name": "",
          "type": "tuple[]"
        }
      ],
      "stateMutability": "view",
      "type": "function"
    },
    {
      "inputs": [],
      "name": "fetchMarketItems",
      "outputs": [
        {
          "components": [
            {
              "internalType": "uint256",
              "name": "tokenId",
              "type": "uint256"
            },
            {
              "internalType": "address payable",
              "name": "seller",
              "type": "address"
            },
            {
              "internalType": "address payable",
              "name": "owner",
              "type": "address"
            },
            {
              "internalType": "uint256",
              "name": "price",
              "type": "uint256"
            },
            {
              "internalType": "bool",
              "name": "sold",
              "type": "bool"
            },
            {
              "internalType": "string",
              "name": "Uri",
              "type": "string"
            },
            {
              "internalType": "string",
              "name": "artistName",
              "type": "string"
            }
          ],
          "internalType": "struct NFTMarketplace.MarketItem[]",
          "name": "",
          "type": "tuple[]"
        }
      ],
      "stateMutability": "view",
      "type": "function"
    },
    {
      "inputs": [],
      "name": "fetchUserPurchasedItem",
      "outputs": [
        {
          "components": [
            {
              "internalType": "uint256",
              "name": "tokenId",
              "type": "uint256"
            },
            {
              "internalType": "address payable",
              "name": "seller",
              "type": "address"
            },
            {
              "internalType": "address payable",
              "name": "owner",
              "type": "address"
            },
            {
              "internalType": "uint256",
              "name": "price",
              "type": "uint256"
            },
            {
              "internalType": "bool",
              "name": "sold",
              "type": "bool"
            },
            {
              "internalType": "string",
              "name": "Uri",
              "type": "string"
            },
            {
              "internalType": "string",
              "name": "artistName",
              "type": "string"
            }
          ],
          "internalType": "struct NFTMarketplace.MarketItem[]",
          "name": "",
          "type": "tuple[]"
        }
      ],
      "stateMutability": "view",
      "type": "function"
    },
    {
      "inputs": [
        {
          "internalType": "uint256",
          "name": "tokenId",
          "type": "uint256"
        }
      ],
      "name": "getApproved",
      "outputs": [
        {
          "internalType": "address",
          "name": "",
          "type": "address"
        }
      ],
      "stateMutability": "view",
      "type": "function"
    },
    {
      "inputs": [],
      "name": "getListingPrice",
      "outputs": [
        {
          "internalType": "uint256",
          "name": "",
          "type": "uint256"
        }
      ],
      "stateMutability": "view",
      "type": "function"
    },
    {
      "inputs": [
        {
          "internalType": "address",
          "name": "owner",
          "type": "address"
        },
        {
          "internalType": "address",
          "name": "operator",
          "type": "address"
        }
      ],
      "name": "isApprovedForAll",
      "outputs": [
        {
          "internalType": "bool",
          "name": "",
          "type": "bool"
        }
      ],
      "stateMutability": "view",
      "type": "function"
    },
    {
      "inputs": [],
      "name": "name",
      "outputs": [
        {
          "internalType": "string",
          "name": "",
          "type": "string"
        }
      ],
      "stateMutability": "view",
      "type": "function"
    },
    {
      "inputs": [
        {
          "internalType": "uint256",
          "name": "tokenId",
          "type": "uint256"
        }
      ],
      "name": "ownerOf",
      "outputs": [
        {
          "internalType": "address",
          "name": "",
          "type": "address"
        }
      ],
      "stateMutability": "view",
      "type": "function"
    },
    {
      "inputs": [
        {
          "internalType": "uint256",
          "name": "tokenId",
          "type": "uint256"
        },
        {
          "internalType": "uint256",
          "name": "price",
          "type": "uint256"
        }
      ],
      "name": "resellToken",
      "outputs": [],
      "stateMutability": "payable",
      "type": "function"
    },
    {
      "inputs": [
        {
          "internalType": "address",
          "name": "from",
          "type": "address"
        },
        {
          "internalType": "address",
          "name": "to",
          "type": "address"
        },
        {
          "internalType": "uint256",
          "name": "tokenId",
          "type": "uint256"
        }
      ],
      "name": "safeTransferFrom",
      "outputs": [],
      "stateMutability": "nonpayable",
      "type": "function"
    },
    {
      "inputs": [
        {
          "internalType": "address",
          "name": "from",
          "type": "address"
        },
        {
          "internalType": "address",
          "name": "to",
          "type": "address"
        },
        {
          "internalType": "uint256",
          "name": "tokenId",
          "type": "uint256"
        },
        {
          "internalType": "bytes",
          "name": "data",
          "type": "bytes"
        }
      ],
      "name": "safeTransferFrom",
      "outputs": [],
      "stateMutability": "nonpayable",
      "type": "function"
    },
    {
      "inputs": [
        {
          "internalType": "address",
          "name": "operator",
          "type": "address"
        },
        {
          "internalType": "bool",
          "name": "approved",
          "type": "bool"
        }
      ],
      "name": "setApprovalForAll",
      "outputs": [],
      "stateMutability": "nonpayable",
      "type": "function"
    },
    {
      "inputs": [
        {
          "internalType": "bytes4",
          "name": "interfaceId",
          "type": "bytes4"
        }
      ],
      "name": "supportsInterface",
      "outputs": [
        {
          "internalType": "bool",
          "name": "",
          "type": "bool"
        }
      ],
      "stateMutability": "view",
      "type": "function"
    },
    {
      "inputs": [],
      "name": "symbol",
      "outputs": [
        {
          "internalType": "string",
          "name": "",
          "type": "string"
        }
      ],
      "stateMutability": "view",
      "type": "function"
    },
    {
      "inputs": [
        {
          "internalType": "uint256",
          "name": "tokenId",
          "type": "uint256"
        }
      ],
      "name": "tokenURI",
      "outputs": [
        {
          "internalType": "string",
          "name": "",
          "type": "string"
        }
      ],
      "stateMutability": "view",
      "type": "function"
    },
    {
      "inputs": [
        {
          "internalType": "address",
          "name": "from",
          "type": "address"
        },
        {
          "internalType": "address",
          "name": "to",
          "type": "address"
        },
        {
          "internalType": "uint256",
          "name": "tokenId",
          "type": "uint256"
        }
      ],
      "name": "transferFrom",
      "outputs": [],
      "stateMutability": "nonpayable",
      "type": "function"
    }
  ],
  "bytecode": "0x60806040526658d15e176280006009553480156200001c57600080fd5b506040518060400160405280601081526020017f4d657461766572736520546f6b656e73000000000000000000000000000000008152506040518060400160405280600481526020017f4d455454000000000000000000000000000000000000000000000000000000008152508160009080519060200190620000a192919062000104565b508060019080519060200190620000ba92919062000104565b50505033600a60006101000a81548173ffffffffffffffffffffffffffffffffffffffff021916908373ffffffffffffffffffffffffffffffffffffffff16021790555062000219565b8280546200011290620001b4565b90600052602060002090601f01602090048101928262000136576000855562000182565b82601f106200015157805160ff191683800117855562000182565b8280016001018555821562000182579182015b828111156200018157825182559160200191906001019062000164565b5b50905062000191919062000195565b5090565b5b80821115620001b057600081600090555060010162000196565b5090565b60006002820490506001821680620001cd57607f821691505b60208210811415620001e457620001e3620001ea565b5b50919050565b7f4e487b7100000000000000000000000000000000000000000000000000000000600052602260045260246000fd5b614a6480620002296000396000f3fe6080604052600436106101405760003560e01c806395d89b41116100b6578063be9af5361161006f578063be9af5361461045e578063c6c9b5b11461047a578063c87b56dd146104aa578063e1791445146104e7578063e219fc7514610512578063e985e9c51461052e57610140565b806395d89b411461036057806397598cc31461038b578063a22cb465146103b6578063aa46a400146103df578063b88d4fde1461040a578063bae5f47e1461043357610140565b806312e855851161010857806312e855851461023e57806323b872dd146102695780632aeafc5f1461029257806342842e0e146102bd5780636352211e146102e657806370a082311461032357610140565b806301ffc9a71461014557806306fdde0314610182578063081812fc146101ad578063095ea7b3146101ea5780630f08efe014610213575b600080fd5b34801561015157600080fd5b5061016c60048036038101906101679190613872565b61056b565b6040516101799190613f4f565b60405180910390f35b34801561018e57600080fd5b5061019761064d565b6040516101a49190613f6a565b60405180910390f35b3480156101b957600080fd5b506101d460048036038101906101cf9190613943565b6106df565b6040516101e19190613e81565b60405180910390f35b3480156101f657600080fd5b50610211600480360381019061020c9190613836565b610725565b005b34801561021f57600080fd5b5061022861083d565b6040516102359190613f2d565b60405180910390f35b34801561024a57600080fd5b50610253610c16565b60405161026091906141ac565b60405180910390f35b34801561027557600080fd5b50610290600480360381019061028b9190613730565b610c20565b005b34801561029e57600080fd5b506102a7610c80565b6040516102b491906141ac565b60405180910390f35b3480156102c957600080fd5b506102e460048036038101906102df9190613730565b610c8c565b005b3480156102f257600080fd5b5061030d60048036038101906103089190613943565b610cac565b60405161031a9190613e81565b60405180910390f35b34801561032f57600080fd5b5061034a600480360381019061034591906136cb565b610d33565b60405161035791906141ac565b60405180910390f35b34801561036c57600080fd5b50610375610deb565b6040516103829190613f6a565b60405180910390f35b34801561039757600080fd5b506103a0610e7d565b6040516103ad9190613f2d565b60405180910390f35b3480156103c257600080fd5b506103dd60048036038101906103d891906137fa565b6111bc565b005b3480156103eb57600080fd5b506103f46111d2565b60405161040191906141ac565b60405180910390f35b34801561041657600080fd5b50610431600480360381019061042c919061377f565b6111de565b005b34801561043f57600080fd5b50610448611240565b6040516104559190613f2d565b60405180910390f35b61047860048036038101906104739190613943565b61169e565b005b610494600480360381019061048f91906138c4565b6118dc565b6040516104a191906141ac565b60405180910390f35b3480156104b657600080fd5b506104d160048036038101906104cc9190613943565b611921565b6040516104de9190613f6a565b60405180910390f35b3480156104f357600080fd5b506104fc611a34565b6040516105099190613f2d565b60405180910390f35b61052c6004803603810190610527919061396c565b611e92565b005b34801561053a57600080fd5b50610555600480360381019061055091906136f4565b612087565b6040516105629190613f4f565b60405180910390f35b60007f80ac58cd000000000000000000000000000000000000000000000000000000007bffffffffffffffffffffffffffffffffffffffffffffffffffffffff1916827bffffffffffffffffffffffffffffffffffffffffffffffffffffffff1916148061063657507f5b5e139f000000000000000000000000000000000000000000000000000000007bffffffffffffffffffffffffffffffffffffffffffffffffffffffff1916827bffffffffffffffffffffffffffffffffffffffffffffffffffffffff1916145b8061064657506106458261211b565b5b9050919050565b60606000805461065c9061442d565b80601f01602080910402602001604051908101604052809291908181526020018280546106889061442d565b80156106d55780601f106106aa576101008083540402835291602001916106d5565b820191906000526020600020905b8154815290600101906020018083116106b857829003601f168201915b5050505050905090565b60006106ea82612185565b6004600083815260200190815260200160002060009054906101000a900473ffffffffffffffffffffffffffffffffffffffff169050919050565b600061073082610cac565b90508073ffffffffffffffffffffffffffffffffffffffff168373ffffffffffffffffffffffffffffffffffffffff1614156107a1576040517f08c379a00000000000000000000000000000000000000000000000000000000081526004016107989061414c565b60405180910390fd5b8073ffffffffffffffffffffffffffffffffffffffff166107c06121d0565b73ffffffffffffffffffffffffffffffffffffffff1614806107ef57506107ee816107e96121d0565b612087565b5b61082e576040517f08c379a00000000000000000000000000000000000000000000000000000000081526004016108259061418c565b60405180910390fd5b61083883836121d8565b505050565b6060600061084b6007612291565b905060006108596008612291565b6108636007612291565b61086d9190614331565b90506000808267ffffffffffffffff8111156108b2577f4e487b7100000000000000000000000000000000000000000000000000000000600052604160045260246000fd5b6040519080825280602002602001820160405280156108eb57816020015b6108d8613484565b8152602001906001900390816108d05790505b50905060005b84811015610c0b573073ffffffffffffffffffffffffffffffffffffffff16600b600060018461092191906142db565b815260200190815260200160002060020160009054906101000a900473ffffffffffffffffffffffffffffffffffffffff1673ffffffffffffffffffffffffffffffffffffffff161415610bf857600060018261097e91906142db565b90506000600b60008381526020019081526020016000209050806040518060e0016040529081600082015481526020016001820160009054906101000a900473ffffffffffffffffffffffffffffffffffffffff1673ffffffffffffffffffffffffffffffffffffffff1673ffffffffffffffffffffffffffffffffffffffff1681526020016002820160009054906101000a900473ffffffffffffffffffffffffffffffffffffffff1673ffffffffffffffffffffffffffffffffffffffff1673ffffffffffffffffffffffffffffffffffffffff168152602001600382015481526020016004820160009054906101000a900460ff16151515158152602001600582018054610a8e9061442d565b80601f0160208091040260200160405190810160405280929190818152602001828054610aba9061442d565b8015610b075780601f10610adc57610100808354040283529160200191610b07565b820191906000526020600020905b815481529060010190602001808311610aea57829003601f168201915b50505050508152602001600682018054610b209061442d565b80601f0160208091040260200160405190810160405280929190818152602001828054610b4c9061442d565b8015610b995780601f10610b6e57610100808354040283529160200191610b99565b820191906000526020600020905b815481529060010190602001808311610b7c57829003601f168201915b505050505081525050848681518110610bdb577f4e487b7100000000000000000000000000000000000000000000000000000000600052603260045260246000fd5b6020026020010181905250600185610bf391906142db565b945050505b8080610c0390614490565b9150506108f1565b508094505050505090565b6000600954905090565b610c31610c2b6121d0565b8261229f565b610c70576040517f08c379a0000000000000000000000000000000000000000000000000000000008152600401610c6790613f8c565b60405180910390fd5b610c7b838383612334565b505050565b60088060000154905081565b610ca7838383604051806020016040528060008152506111de565b505050565b600080610cb88361262e565b9050600073ffffffffffffffffffffffffffffffffffffffff168173ffffffffffffffffffffffffffffffffffffffff161415610d2a576040517f08c379a0000000000000000000000000000000000000000000000000000000008152600401610d219061412c565b60405180910390fd5b80915050919050565b60008073ffffffffffffffffffffffffffffffffffffffff168273ffffffffffffffffffffffffffffffffffffffff161415610da4576040517f08c379a0000000000000000000000000000000000000000000000000000000008152600401610d9b9061408c565b60405180910390fd5b600360008373ffffffffffffffffffffffffffffffffffffffff1673ffffffffffffffffffffffffffffffffffffffff168152602001908152602001600020549050919050565b606060018054610dfa9061442d565b80601f0160208091040260200160405190810160405280929190818152602001828054610e269061442d565b8015610e735780601f10610e4857610100808354040283529160200191610e73565b820191906000526020600020905b815481529060010190602001808311610e5657829003601f168201915b5050505050905090565b60606000610e8b6007612291565b90506000808267ffffffffffffffff811115610ed0577f4e487b7100000000000000000000000000000000000000000000000000000000600052604160045260246000fd5b604051908082528060200260200182016040528015610f0957816020015b610ef6613484565b815260200190600190039081610eee5790505b50905060005b838110156111b2576000600182610f2691906142db565b90506000600b60008381526020019081526020016000209050806040518060e0016040529081600082015481526020016001820160009054906101000a900473ffffffffffffffffffffffffffffffffffffffff1673ffffffffffffffffffffffffffffffffffffffff1673ffffffffffffffffffffffffffffffffffffffff1681526020016002820160009054906101000a900473ffffffffffffffffffffffffffffffffffffffff1673ffffffffffffffffffffffffffffffffffffffff1673ffffffffffffffffffffffffffffffffffffffff168152602001600382015481526020016004820160009054906101000a900460ff161515151581526020016005820180546110369061442d565b80601f01602080910402602001604051908101604052809291908181526020018280546110629061442d565b80156110af5780601f10611084576101008083540402835291602001916110af565b820191906000526020600020905b81548152906001019060200180831161109257829003601f168201915b505050505081526020016006820180546110c89061442d565b80601f01602080910402602001604051908101604052809291908181526020018280546110f49061442d565b80156111415780601f1061111657610100808354040283529160200191611141565b820191906000526020600020905b81548152906001019060200180831161112457829003601f168201915b505050505081525050848681518110611183577f4e487b7100000000000000000000000000000000000000000000000000000000600052603260045260246000fd5b602002602001018190525060018561119b91906142db565b9450505080806111aa90614490565b915050610f0f565b5080935050505090565b6111ce6111c76121d0565b838361266b565b5050565b60078060000154905081565b6111ef6111e96121d0565b8361229f565b61122e576040517f08c379a000000000000000000000000000000000000000000000000000000000815260040161122590613f8c565b60405180910390fd5b61123a848484846127d8565b50505050565b6060600061124e6007612291565b905060008060005b838110156112f7573373ffffffffffffffffffffffffffffffffffffffff16600b600060018461128691906142db565b815260200190815260200160002060020160009054906101000a900473ffffffffffffffffffffffffffffffffffffffff1673ffffffffffffffffffffffffffffffffffffffff1614156112e4576001836112e191906142db565b92505b80806112ef90614490565b915050611256565b5060008267ffffffffffffffff81111561133a577f4e487b7100000000000000000000000000000000000000000000000000000000600052604160045260246000fd5b60405190808252806020026020018201604052801561137357816020015b611360613484565b8152602001906001900390816113585790505b50905060005b84811015611693573373ffffffffffffffffffffffffffffffffffffffff16600b60006001846113a991906142db565b815260200190815260200160002060020160009054906101000a900473ffffffffffffffffffffffffffffffffffffffff1673ffffffffffffffffffffffffffffffffffffffff16141561168057600060018261140691906142db565b90506000600b60008381526020019081526020016000209050806040518060e0016040529081600082015481526020016001820160009054906101000a900473ffffffffffffffffffffffffffffffffffffffff1673ffffffffffffffffffffffffffffffffffffffff1673ffffffffffffffffffffffffffffffffffffffff1681526020016002820160009054906101000a900473ffffffffffffffffffffffffffffffffffffffff1673ffffffffffffffffffffffffffffffffffffffff1673ffffffffffffffffffffffffffffffffffffffff168152602001600382015481526020016004820160009054906101000a900460ff161515151581526020016005820180546115169061442d565b80601f01602080910402602001604051908101604052809291908181526020018280546115429061442d565b801561158f5780601f106115645761010080835404028352916020019161158f565b820191906000526020600020905b81548152906001019060200180831161157257829003601f168201915b505050505081526020016006820180546115a89061442d565b80601f01602080910402602001604051908101604052809291908181526020018280546115d49061442d565b80156116215780601f106115f657610100808354040283529160200191611621565b820191906000526020600020905b81548152906001019060200180831161160457829003601f168201915b505050505081525050848681518110611663577f4e487b7100000000000000000000000000000000000000000000000000000000600052603260045260246000fd5b602002602001018190525060018561167b91906142db565b945050505b808061168b90614490565b915050611379565b508094505050505090565b6000600b60008381526020019081526020016000206003015490506000600b600084815260200190815260200160002060010160009054906101000a900473ffffffffffffffffffffffffffffffffffffffff169050813414611736576040517f08c379a000000000000000000000000000000000000000000000000000000000815260040161172d906140ec565b60405180910390fd5b33600b600085815260200190815260200160002060020160006101000a81548173ffffffffffffffffffffffffffffffffffffffff021916908373ffffffffffffffffffffffffffffffffffffffff1602179055506001600b600085815260200190815260200160002060040160006101000a81548160ff0219169083151502179055506000600b600085815260200190815260200160002060010160006101000a81548173ffffffffffffffffffffffffffffffffffffffff021916908373ffffffffffffffffffffffffffffffffffffffff16021790555061181a6008612834565b611825303385612334565b600a60009054906101000a900473ffffffffffffffffffffffffffffffffffffffff1673ffffffffffffffffffffffffffffffffffffffff166108fc6009549081150290604051600060405180830381858888f1935050505015801561188f573d6000803e3d6000fd5b508073ffffffffffffffffffffffffffffffffffffffff166108fc349081150290604051600060405180830381858888f193505050501580156118d6573d6000803e3d6000fd5b50505050565b60006118e86007612834565b60006118f46007612291565b9050611900338261284a565b61190a8186612a68565b61191681858786612adc565b809150509392505050565b606061192c82612185565b600060066000848152602001908152602001600020805461194c9061442d565b80601f01602080910402602001604051908101604052809291908181526020018280546119789061442d565b80156119c55780601f1061199a576101008083540402835291602001916119c5565b820191906000526020600020905b8154815290600101906020018083116119a857829003601f168201915b5050505050905060006119d6612d27565b90506000815114156119ec578192505050611a2f565b600082511115611a21578082604051602001611a09929190613e5d565b60405160208183030381529060405292505050611a2f565b611a2a84612d3e565b925050505b919050565b60606000611a426007612291565b905060008060005b83811015611aeb573373ffffffffffffffffffffffffffffffffffffffff16600b6000600184611a7a91906142db565b815260200190815260200160002060010160009054906101000a900473ffffffffffffffffffffffffffffffffffffffff1673ffffffffffffffffffffffffffffffffffffffff161415611ad857600183611ad591906142db565b92505b8080611ae390614490565b915050611a4a565b5060008267ffffffffffffffff811115611b2e577f4e487b7100000000000000000000000000000000000000000000000000000000600052604160045260246000fd5b604051908082528060200260200182016040528015611b6757816020015b611b54613484565b815260200190600190039081611b4c5790505b50905060005b84811015611e87573373ffffffffffffffffffffffffffffffffffffffff16600b6000600184611b9d91906142db565b815260200190815260200160002060010160009054906101000a900473ffffffffffffffffffffffffffffffffffffffff1673ffffffffffffffffffffffffffffffffffffffff161415611e74576000600182611bfa91906142db565b90506000600b60008381526020019081526020016000209050806040518060e0016040529081600082015481526020016001820160009054906101000a900473ffffffffffffffffffffffffffffffffffffffff1673ffffffffffffffffffffffffffffffffffffffff1673ffffffffffffffffffffffffffffffffffffffff1681526020016002820160009054906101000a900473ffffffffffffffffffffffffffffffffffffffff1673ffffffffffffffffffffffffffffffffffffffff1673ffffffffffffffffffffffffffffffffffffffff168152602001600382015481526020016004820160009054906101000a900460ff16151515158152602001600582018054611d0a9061442d565b80601f0160208091040260200160405190810160405280929190818152602001828054611d369061442d565b8015611d835780601f10611d5857610100808354040283529160200191611d83565b820191906000526020600020905b815481529060010190602001808311611d6657829003601f168201915b50505050508152602001600682018054611d9c9061442d565b80601f0160208091040260200160405190810160405280929190818152602001828054611dc89061442d565b8015611e155780601f10611dea57610100808354040283529160200191611e15565b820191906000526020600020905b815481529060010190602001808311611df857829003601f168201915b505050505081525050848681518110611e57577f4e487b7100000000000000000000000000000000000000000000000000000000600052603260045260246000fd5b6020026020010181905250600185611e6f91906142db565b945050505b8080611e7f90614490565b915050611b6d565b508094505050505090565b3373ffffffffffffffffffffffffffffffffffffffff16600b600084815260200190815260200160002060020160009054906101000a900473ffffffffffffffffffffffffffffffffffffffff1673ffffffffffffffffffffffffffffffffffffffff1614611f36576040517f08c379a0000000000000000000000000000000000000000000000000000000008152600401611f2d906140ac565b60405180910390fd5b6009543414611f7a576040517f08c379a0000000000000000000000000000000000000000000000000000000008152600401611f719061416c565b60405180910390fd5b6000600b600084815260200190815260200160002060040160006101000a81548160ff02191690831515021790555080600b60008481526020019081526020016000206003018190555033600b600084815260200190815260200160002060010160006101000a81548173ffffffffffffffffffffffffffffffffffffffff021916908373ffffffffffffffffffffffffffffffffffffffff16021790555030600b600084815260200190815260200160002060020160006101000a81548173ffffffffffffffffffffffffffffffffffffffff021916908373ffffffffffffffffffffffffffffffffffffffff1602179055506120786008612da6565b612083333084612334565b5050565b6000600560008473ffffffffffffffffffffffffffffffffffffffff1673ffffffffffffffffffffffffffffffffffffffff16815260200190815260200160002060008373ffffffffffffffffffffffffffffffffffffffff1673ffffffffffffffffffffffffffffffffffffffff16815260200190815260200160002060009054906101000a900460ff16905092915050565b60007f01ffc9a7000000000000000000000000000000000000000000000000000000007bffffffffffffffffffffffffffffffffffffffffffffffffffffffff1916827bffffffffffffffffffffffffffffffffffffffffffffffffffffffff1916149050919050565b61218e81612e02565b6121cd576040517f08c379a00000000000000000000000000000000000000000000000000000000081526004016121c49061412c565b60405180910390fd5b50565b600033905090565b816004600083815260200190815260200160002060006101000a81548173ffffffffffffffffffffffffffffffffffffffff021916908373ffffffffffffffffffffffffffffffffffffffff160217905550808273ffffffffffffffffffffffffffffffffffffffff1661224b83610cac565b73ffffffffffffffffffffffffffffffffffffffff167f8c5be1e5ebec7d5bd14f71427d1e84f3dd0314c0f7b2291e5b200ac8c7c3b92560405160405180910390a45050565b600081600001549050919050565b6000806122ab83610cac565b90508073ffffffffffffffffffffffffffffffffffffffff168473ffffffffffffffffffffffffffffffffffffffff1614806122ed57506122ec8185612087565b5b8061232b57508373ffffffffffffffffffffffffffffffffffffffff16612313846106df565b73ffffffffffffffffffffffffffffffffffffffff16145b91505092915050565b8273ffffffffffffffffffffffffffffffffffffffff1661235482610cac565b73ffffffffffffffffffffffffffffffffffffffff16146123aa576040517f08c379a00000000000000000000000000000000000000000000000000000000081526004016123a190613fec565b60405180910390fd5b600073ffffffffffffffffffffffffffffffffffffffff168273ffffffffffffffffffffffffffffffffffffffff16141561241a576040517f08c379a00000000000000000000000000000000000000000000000000000000081526004016124119061404c565b60405180910390fd5b6124278383836001612e43565b8273ffffffffffffffffffffffffffffffffffffffff1661244782610cac565b73ffffffffffffffffffffffffffffffffffffffff161461249d576040517f08c379a000000000000000000000000000000000000000000000000000000000815260040161249490613fec565b60405180910390fd5b6004600082815260200190815260200160002060006101000a81549073ffffffffffffffffffffffffffffffffffffffff02191690556001600360008573ffffffffffffffffffffffffffffffffffffffff1673ffffffffffffffffffffffffffffffffffffffff168152602001908152602001600020600082825403925050819055506001600360008473ffffffffffffffffffffffffffffffffffffffff1673ffffffffffffffffffffffffffffffffffffffff16815260200190815260200160002060008282540192505081905550816002600083815260200190815260200160002060006101000a81548173ffffffffffffffffffffffffffffffffffffffff021916908373ffffffffffffffffffffffffffffffffffffffff160217905550808273ffffffffffffffffffffffffffffffffffffffff168473ffffffffffffffffffffffffffffffffffffffff167fddf252ad1be2c89b69c2b068fc378daa952ba7f163c4a11628f55a4df523b3ef60405160405180910390a46126298383836001612f69565b505050565b60006002600083815260200190815260200160002060009054906101000a900473ffffffffffffffffffffffffffffffffffffffff169050919050565b8173ffffffffffffffffffffffffffffffffffffffff168373ffffffffffffffffffffffffffffffffffffffff1614156126da576040517f08c379a00000000000000000000000000000000000000000000000000000000081526004016126d19061406c565b60405180910390fd5b80600560008573ffffffffffffffffffffffffffffffffffffffff1673ffffffffffffffffffffffffffffffffffffffff16815260200190815260200160002060008473ffffffffffffffffffffffffffffffffffffffff1673ffffffffffffffffffffffffffffffffffffffff16815260200190815260200160002060006101000a81548160ff0219169083151502179055508173ffffffffffffffffffffffffffffffffffffffff168373ffffffffffffffffffffffffffffffffffffffff167f17307eab39ab6107e8899845ad3d59bd9653f200f220920489ca2b5937696c31836040516127cb9190613f4f565b60405180910390a3505050565b6127e3848484612334565b6127ef84848484612f6f565b61282e576040517f08c379a000000000000000000000000000000000000000000000000000000000815260040161282590613fcc565b60405180910390fd5b50505050565b6001816000016000828254019250508190555050565b600073ffffffffffffffffffffffffffffffffffffffff168273ffffffffffffffffffffffffffffffffffffffff1614156128ba576040517f08c379a00000000000000000000000000000000000000000000000000000000081526004016128b19061410c565b60405180910390fd5b6128c381612e02565b15612903576040517f08c379a00000000000000000000000000000000000000000000000000000000081526004016128fa9061402c565b60405180910390fd5b612911600083836001612e43565b61291a81612e02565b1561295a576040517f08c379a00000000000000000000000000000000000000000000000000000000081526004016129519061402c565b60405180910390fd5b6001600360008473ffffffffffffffffffffffffffffffffffffffff1673ffffffffffffffffffffffffffffffffffffffff16815260200190815260200160002060008282540192505081905550816002600083815260200190815260200160002060006101000a81548173ffffffffffffffffffffffffffffffffffffffff021916908373ffffffffffffffffffffffffffffffffffffffff160217905550808273ffffffffffffffffffffffffffffffffffffffff16600073ffffffffffffffffffffffffffffffffffffffff167fddf252ad1be2c89b69c2b068fc378daa952ba7f163c4a11628f55a4df523b3ef60405160405180910390a4612a64600083836001612f69565b5050565b612a7182612e02565b612ab0576040517f08c379a0000000000000000000000000000000000000000000000000000000008152600401612aa7906140cc565b60405180910390fd5b80600660008481526020019081526020016000209080519060200190612ad79291906134ef565b505050565b60008311612b1f576040517f08c379a0000000000000000000000000000000000000000000000000000000008152600401612b169061400c565b60405180910390fd5b6009543414612b63576040517f08c379a0000000000000000000000000000000000000000000000000000000008152600401612b5a9061416c565b60405180910390fd5b6040518060e001604052808581526020013373ffffffffffffffffffffffffffffffffffffffff1681526020013073ffffffffffffffffffffffffffffffffffffffff16815260200184815260200160001515815260200183815260200182815250600b60008681526020019081526020016000206000820151816000015560208201518160010160006101000a81548173ffffffffffffffffffffffffffffffffffffffff021916908373ffffffffffffffffffffffffffffffffffffffff16021790555060408201518160020160006101000a81548173ffffffffffffffffffffffffffffffffffffffff021916908373ffffffffffffffffffffffffffffffffffffffff1602179055506060820151816003015560808201518160040160006101000a81548160ff02191690831515021790555060a0820151816005019080519060200190612cb69291906134ef565b5060c0820151816006019080519060200190612cd39291906134ef565b50905050612ce2333086612334565b837fb640004f1d14576d0c209e240cad0410e0d8c0c33a09375861fbadae2588a98d3330866000604051612d199493929190613e9c565b60405180910390a250505050565b606060405180602001604052806000815250905090565b6060612d4982612185565b6000612d53612d27565b90506000815111612d735760405180602001604052806000815250612d9e565b80612d7d84613106565b604051602001612d8e929190613e5d565b6040516020818303038152906040525b915050919050565b60008160000154905060008111612df2576040517f08c379a0000000000000000000000000000000000000000000000000000000008152600401612de990613fac565b60405180910390fd5b6001810382600001819055505050565b60008073ffffffffffffffffffffffffffffffffffffffff16612e248361262e565b73ffffffffffffffffffffffffffffffffffffffff1614159050919050565b6001811115612f6357600073ffffffffffffffffffffffffffffffffffffffff168473ffffffffffffffffffffffffffffffffffffffff1614612ed75780600360008673ffffffffffffffffffffffffffffffffffffffff1673ffffffffffffffffffffffffffffffffffffffff1681526020019081526020016000206000828254612ecf9190614331565b925050819055505b600073ffffffffffffffffffffffffffffffffffffffff168373ffffffffffffffffffffffffffffffffffffffff1614612f625780600360008573ffffffffffffffffffffffffffffffffffffffff1673ffffffffffffffffffffffffffffffffffffffff1681526020019081526020016000206000828254612f5a91906142db565b925050819055505b5b50505050565b50505050565b6000612f908473ffffffffffffffffffffffffffffffffffffffff1661322a565b156130f9578373ffffffffffffffffffffffffffffffffffffffff1663150b7a02612fb96121d0565b8786866040518563ffffffff1660e01b8152600401612fdb9493929190613ee1565b602060405180830381600087803b158015612ff557600080fd5b505af192505050801561302657506040513d601f19601f82011682018060405250810190613023919061389b565b60015b6130a9573d8060008114613056576040519150601f19603f3d011682016040523d82523d6000602084013e61305b565b606091505b506000815114156130a1576040517f08c379a000000000000000000000000000000000000000000000000000000000815260040161309890613fcc565b60405180910390fd5b805181602001fd5b63150b7a0260e01b7bffffffffffffffffffffffffffffffffffffffffffffffffffffffff1916817bffffffffffffffffffffffffffffffffffffffffffffffffffffffff1916149150506130fe565b600190505b949350505050565b6060600060016131158461324d565b01905060008167ffffffffffffffff81111561315a577f4e487b7100000000000000000000000000000000000000000000000000000000600052604160045260246000fd5b6040519080825280601f01601f19166020018201604052801561318c5781602001600182028036833780820191505090505b509050600082602001820190505b60011561321f578080600190039150507f3031323334353637383961626364656600000000000000000000000000000000600a86061a8153600a8581613209577f4e487b7100000000000000000000000000000000000000000000000000000000600052601260045260246000fd5b049450600085141561321a5761321f565b61319a565b819350505050919050565b6000808273ffffffffffffffffffffffffffffffffffffffff163b119050919050565b600080600090507a184f03e93ff9f4daa797ed6e38ed64bf6a1f01000000000000000083106132d1577a184f03e93ff9f4daa797ed6e38ed64bf6a1f01000000000000000083816132c7577f4e487b7100000000000000000000000000000000000000000000000000000000600052601260045260246000fd5b0492506040810190505b6d04ee2d6d415b85acef81000000008310613334576d04ee2d6d415b85acef8100000000838161332a577f4e487b7100000000000000000000000000000000000000000000000000000000600052601260045260246000fd5b0492506020810190505b662386f26fc10000831061338957662386f26fc10000838161337f577f4e487b7100000000000000000000000000000000000000000000000000000000600052601260045260246000fd5b0492506010810190505b6305f5e10083106133d8576305f5e10083816133ce577f4e487b7100000000000000000000000000000000000000000000000000000000600052601260045260246000fd5b0492506008810190505b6127108310613423576127108381613419577f4e487b7100000000000000000000000000000000000000000000000000000000600052601260045260246000fd5b0492506004810190505b6064831061346c5760648381613462577f4e487b7100000000000000000000000000000000000000000000000000000000600052601260045260246000fd5b0492506002810190505b600a831061347b576001810190505b80915050919050565b6040518060e0016040528060008152602001600073ffffffffffffffffffffffffffffffffffffffff168152602001600073ffffffffffffffffffffffffffffffffffffffff1681526020016000815260200160001515815260200160608152602001606081525090565b8280546134fb9061442d565b90600052602060002090601f01602090048101928261351d5760008555613564565b82601f1061353657805160ff1916838001178555613564565b82800160010185558215613564579182015b82811115613563578251825591602001919060010190613548565b5b5090506135719190613575565b5090565b5b8082111561358e576000816000905550600101613576565b5090565b60006135a56135a0846141ec565b6141c7565b9050828152602081018484840111156135bd57600080fd5b6135c88482856143eb565b509392505050565b60006135e36135de8461421d565b6141c7565b9050828152602081018484840111156135fb57600080fd5b6136068482856143eb565b509392505050565b60008135905061361d816149d2565b92915050565b600081359050613632816149e9565b92915050565b60008135905061364781614a00565b92915050565b60008151905061365c81614a00565b92915050565b600082601f83011261367357600080fd5b8135613683848260208601613592565b91505092915050565b600082601f83011261369d57600080fd5b81356136ad8482602086016135d0565b91505092915050565b6000813590506136c581614a17565b92915050565b6000602082840312156136dd57600080fd5b60006136eb8482850161360e565b91505092915050565b6000806040838503121561370757600080fd5b60006137158582860161360e565b92505060206137268582860161360e565b9150509250929050565b60008060006060848603121561374557600080fd5b60006137538682870161360e565b93505060206137648682870161360e565b9250506040613775868287016136b6565b9150509250925092565b6000806000806080858703121561379557600080fd5b60006137a38782880161360e565b94505060206137b48782880161360e565b93505060406137c5878288016136b6565b925050606085013567ffffffffffffffff8111156137e257600080fd5b6137ee87828801613662565b91505092959194509250565b6000806040838503121561380d57600080fd5b600061381b8582860161360e565b925050602061382c85828601613623565b9150509250929050565b6000806040838503121561384957600080fd5b60006138578582860161360e565b9250506020613868858286016136b6565b9150509250929050565b60006020828403121561388457600080fd5b600061389284828501613638565b91505092915050565b6000602082840312156138ad57600080fd5b60006138bb8482850161364d565b91505092915050565b6000806000606084860312156138d957600080fd5b600084013567ffffffffffffffff8111156138f357600080fd5b6138ff8682870161368c565b9350506020613910868287016136b6565b925050604084013567ffffffffffffffff81111561392d57600080fd5b6139398682870161368c565b9150509250925092565b60006020828403121561395557600080fd5b6000613963848285016136b6565b91505092915050565b6000806040838503121561397f57600080fd5b600061398d858286016136b6565b925050602061399e858286016136b6565b9150509250929050565b60006139b48383613d9c565b905092915050565b6139c581614377565b82525050565b6139d481614365565b82525050565b60006139e58261425e565b6139ef818561428c565b935083602082028501613a018561424e565b8060005b85811015613a3d5784840389528151613a1e85826139a8565b9450613a298361427f565b925060208a01995050600181019050613a05565b50829750879550505050505092915050565b613a5881614389565b82525050565b613a6781614389565b82525050565b6000613a7882614269565b613a82818561429d565b9350613a928185602086016143fa565b613a9b81614566565b840191505092915050565b6000613ab182614274565b613abb81856142ae565b9350613acb8185602086016143fa565b613ad481614566565b840191505092915050565b6000613aea82614274565b613af481856142bf565b9350613b048185602086016143fa565b613b0d81614566565b840191505092915050565b6000613b2382614274565b613b2d81856142d0565b9350613b3d8185602086016143fa565b80840191505092915050565b6000613b56602d836142bf565b9150613b6182614577565b604082019050919050565b6000613b79601b836142bf565b9150613b84826145c6565b602082019050919050565b6000613b9c6032836142bf565b9150613ba7826145ef565b604082019050919050565b6000613bbf6025836142bf565b9150613bca8261463e565b604082019050919050565b6000613be26013836142bf565b9150613bed8261468d565b602082019050919050565b6000613c05601c836142bf565b9150613c10826146b6565b602082019050919050565b6000613c286024836142bf565b9150613c33826146df565b604082019050919050565b6000613c4b6019836142bf565b9150613c568261472e565b602082019050919050565b6000613c6e6029836142bf565b9150613c7982614757565b604082019050919050565b6000613c916022836142bf565b9150613c9c826147a6565b604082019050919050565b6000613cb4602e836142bf565b9150613cbf826147f5565b604082019050919050565b6000613cd76040836142bf565b9150613ce282614844565b604082019050919050565b6000613cfa6020836142bf565b9150613d0582614893565b602082019050919050565b6000613d1d6018836142bf565b9150613d28826148bc565b602082019050919050565b6000613d406021836142bf565b9150613d4b826148e5565b604082019050919050565b6000613d636024836142bf565b9150613d6e82614934565b604082019050919050565b6000613d86603d836142bf565b9150613d9182614983565b604082019050919050565b600060e083016000830151613db46000860182613e3f565b506020830151613dc760208601826139bc565b506040830151613dda60408601826139bc565b506060830151613ded6060860182613e3f565b506080830151613e006080860182613a4f565b5060a083015184820360a0860152613e188282613aa6565b91505060c083015184820360c0860152613e328282613aa6565b9150508091505092915050565b613e48816143e1565b82525050565b613e57816143e1565b82525050565b6000613e698285613b18565b9150613e758284613b18565b91508190509392505050565b6000602082019050613e9660008301846139cb565b92915050565b6000608082019050613eb160008301876139cb565b613ebe60208301866139cb565b613ecb6040830185613e4e565b613ed86060830184613a5e565b95945050505050565b6000608082019050613ef660008301876139cb565b613f0360208301866139cb565b613f106040830185613e4e565b8181036060830152613f228184613a6d565b905095945050505050565b60006020820190508181036000830152613f4781846139da565b905092915050565b6000602082019050613f646000830184613a5e565b92915050565b60006020820190508181036000830152613f848184613adf565b905092915050565b60006020820190508181036000830152613fa581613b49565b9050919050565b60006020820190508181036000830152613fc581613b6c565b9050919050565b60006020820190508181036000830152613fe581613b8f565b9050919050565b6000602082019050818103600083015261400581613bb2565b9050919050565b6000602082019050818103600083015261402581613bd5565b9050919050565b6000602082019050818103600083015261404581613bf8565b9050919050565b6000602082019050818103600083015261406581613c1b565b9050919050565b6000602082019050818103600083015261408581613c3e565b9050919050565b600060208201905081810360008301526140a581613c61565b9050919050565b600060208201905081810360008301526140c581613c84565b9050919050565b600060208201905081810360008301526140e581613ca7565b9050919050565b6000602082019050818103600083015261410581613cca565b9050919050565b6000602082019050818103600083015261412581613ced565b9050919050565b6000602082019050818103600083015261414581613d10565b9050919050565b6000602082019050818103600083015261416581613d33565b9050919050565b6000602082019050818103600083015261418581613d56565b9050919050565b600060208201905081810360008301526141a581613d79565b9050919050565b60006020820190506141c16000830184613e4e565b92915050565b60006141d16141e2565b90506141dd828261445f565b919050565b6000604051905090565b600067ffffffffffffffff82111561420757614206614537565b5b61421082614566565b9050602081019050919050565b600067ffffffffffffffff82111561423857614237614537565b5b61424182614566565b9050602081019050919050565b6000819050602082019050919050565b600081519050919050565b600081519050919050565b600081519050919050565b6000602082019050919050565b600082825260208201905092915050565b600082825260208201905092915050565b600082825260208201905092915050565b600082825260208201905092915050565b600081905092915050565b60006142e6826143e1565b91506142f1836143e1565b9250827fffffffffffffffffffffffffffffffffffffffffffffffffffffffffffffffff03821115614326576143256144d9565b5b828201905092915050565b600061433c826143e1565b9150614347836143e1565b92508282101561435a576143596144d9565b5b828203905092915050565b6000614370826143c1565b9050919050565b6000614382826143c1565b9050919050565b60008115159050919050565b60007fffffffff0000000000000000000000000000000000000000000000000000000082169050919050565b600073ffffffffffffffffffffffffffffffffffffffff82169050919050565b6000819050919050565b82818337600083830152505050565b60005b838110156144185780820151818401526020810190506143fd565b83811115614427576000848401525b50505050565b6000600282049050600182168061444557607f821691505b6020821081141561445957614458614508565b5b50919050565b61446882614566565b810181811067ffffffffffffffff8211171561448757614486614537565b5b80604052505050565b600061449b826143e1565b91507fffffffffffffffffffffffffffffffffffffffffffffffffffffffffffffffff8214156144ce576144cd6144d9565b5b600182019050919050565b7f4e487b7100000000000000000000000000000000000000000000000000000000600052601160045260246000fd5b7f4e487b7100000000000000000000000000000000000000000000000000000000600052602260045260246000fd5b7f4e487b7100000000000000000000000000000000000000000000000000000000600052604160045260246000fd5b6000601f19601f8301169050919050565b7f4552433732313a2063616c6c6572206973206e6f7420746f6b656e206f776e6560008201527f72206f7220617070726f76656400000000000000000000000000000000000000602082015250565b7f436f756e7465723a2064656372656d656e74206f766572666c6f770000000000600082015250565b7f4552433732313a207472616e7366657220746f206e6f6e20455243373231526560008201527f63656976657220696d706c656d656e7465720000000000000000000000000000602082015250565b7f4552433732313a207472616e736665722066726f6d20696e636f72726563742060008201527f6f776e6572000000000000000000000000000000000000000000000000000000602082015250565b7f5072696365206d75737420626520312077656900000000000000000000000000600082015250565b7f4552433732313a20746f6b656e20616c7265616479206d696e74656400000000600082015250565b7f4552433732313a207472616e7366657220746f20746865207a65726f2061646460008201527f7265737300000000000000000000000000000000000000000000000000000000602082015250565b7f4552433732313a20617070726f766520746f2063616c6c657200000000000000600082015250565b7f4552433732313a2061646472657373207a65726f206973206e6f74206120766160008201527f6c6964206f776e65720000000000000000000000000000000000000000000000602082015250565b7f6f6e6c79206f776e65722063616e20706572666f726d2074686973206163746960008201527f6f6e000000000000000000000000000000000000000000000000000000000000602082015250565b7f45524337323155524953746f726167653a2055524920736574206f66206e6f6e60008201527f6578697374656e7420746f6b656e000000000000000000000000000000000000602082015250565b7f506c65617365207375626d6974207468652061736b696e67207072696365206960008201527f6e206f7264657220746f20636f6d706c65746520746865207075726368617365602082015250565b7f4552433732313a206d696e7420746f20746865207a65726f2061646472657373600082015250565b7f4552433732313a20696e76616c696420746f6b656e2049440000000000000000600082015250565b7f4552433732313a20617070726f76616c20746f2063757272656e74206f776e6560008201527f7200000000000000000000000000000000000000000000000000000000000000602082015250565b7f5072696365206d75737420626520657175616c20746f206c697374696e67207060008201527f7269636500000000000000000000000000000000000000000000000000000000602082015250565b7f4552433732313a20617070726f76652063616c6c6572206973206e6f7420746f60008201527f6b656e206f776e6572206f7220617070726f76656420666f7220616c6c000000602082015250565b6149db81614365565b81146149e657600080fd5b50565b6149f281614389565b81146149fd57600080fd5b50565b614a0981614395565b8114614a1457600080fd5b50565b614a20816143e1565b8114614a2b57600080fd5b5056fea26469706673582212203f4f823b01bf1629e9ae808d0c3d3dc76def1ec1860cfcace40563e746facf9f64736f6c63430008040033",
  "linkReferences": {},
  "deployedLinkReferences": {}
}